:100000000C9413030C945A030C945A030C945A0343
:100010000C945A030C945A030C945A030C945A03EC
:100020000C945A030C945A030C94F82B0C94CA2C7D
:100030000C94BB260C945A030C945A030C945A0348
:100040000C945A030C945A030C945A030C945A03BC
:100050000C945A030C9430270C945A030C945A03B2
:100060000C945A030C945A030C945A030C945A039C
:100070000C945A030C945A030C945A030C945A038C
:100080000C945A030C945A030C945A030C945A037C
:100090000C945A030C945A030C945A030C945A036C
:1000A0000C945A030C945A030C945A03691272125A
:1000B00077127C12811286128B12901295129A126C
:1000C0009F12A412A912AE12B312B812BD12C2121C
:1000D000C712CC12D112D612DB12821685168A16DE
:1000E000911696169B16A016A516AA16AF16B4164C
:1000F000B916BB16BD16BF16C516C516C516C5164C
:10010000C5162C1C2C1C5E1C5E1CAB1CC91CEA1DDD
:10011000EA1DD41C691D7A1D7A1DDA1DEA1DEA1D2F
:10012000E31D8A1E8A1E9C1E9C1E931E9C1E9C1EE6
:100130009C1E8A1E8A1E981E9C1E9C1E981E372D71
:100140005E2D562E5E2D562EAA2DCD2D562E242EEA
:10015000332E165C1E001F00200021002200230009
:1001600024002500260027002D002E002A004B0029
:100170002B0014001A000800150017001C001800BE
:100180000C00120013002F00300031004E0001510E
:1001900004001600070009000A000B000D000E0005
:1001A0000F0033003400000028004C00E1001D0067
:1001B0001B00060019000500110010003600370072
:1001C0003800E500000052003500E000E300E200E6
:1001D000000000002C0000000000E6000000E40029
:1001E0005000000051004F0035003A003B003C0039
:1001F0003D003E003F0040004100420043004400FB
:1002000045004C00B2003900F100ED00F200F900A9
:1002100001000100010001005200460047004800B3
:100220000100B3000100EF00EE00F000FA00010051
:10023000C85CC95C500051004F0001000000010083
:100240004900E100C35CC45CCA5CCB5CCC5CCD5CA7
:10025000C65CC75C0100010001000000A900A80005
:1002600001000100010000000000AE0000000000DD
:10027000010000001250AC000000AA00AB00165CA8
:100280003A003B003C003D003E003F004000410082
:1002900042004300440045002A004B002B0014009C
:1002A0001A000800150017001C0018000C001200AE
:1002B00013002F00300031004E00035104001600DF
:1002C000070009000A000B000D000E000F003300AC
:1002D0003400000028004C00E1001D001B00060057
:1002E0001900050011001000360037003800E50045
:1002F000000052003500E000E300E20000000000D2
:100300002C0000000000E60000000100500000008A
:1003100051004F0035001E001F0020002100220068
:10032000230024002500260027002D002E004C006D
:10033000B2003900F100ED00F200F9000100010007
:100340000100010052004600470048000100B300D0
:100350000100EF00EE00F000FA000100C85CC95C8B
:10036000500051004F000100000001004900E10071
:10037000C35CC45CCA5CCB5CCC5CCD5CC65CC75C5B
:100380000100010001000000A900A8000100010017
:10039000010000000000AE000000000001000000AD
:1003A0001050AC000000AA00AB00000101010101E7
:1003B000010101010202020202020202020303031E
:1003C00003030303030404040404040405050505EE
:1003D00005060606060607070707070808080809AE
:1003E0000909090A0A0A0B0B0B0C0C0C0D0D0D0E5A
:1003F0000E0E0F0F0F1010111111121213131414EF
:10040000151516161717181819191A1A1B1B1C1D63
:100410001D1E1E1F202021222223242425262627BC
:100420002829292A2B2C2D2D2E2F303132323334EE
:1004300035363738393A3B3C3D3E3F4041424344F4
:1004400045464748494A4C4D4E4F505153545556D6
:1004500058595A5B5D5E5F616264656668696B6C82
:100460006D6F7072737577787A7B7D7E80828385FD
:1004700087888A8C8E8F91939596989A9C9EA0A23D
:10048000A3A5A7A9ABADAFB1B3B5B7BABCBEC0C247
:10049000C4C6C9CBCDCFD1D4D6D8DBDDDFE2E4E70B
:1004A000E9EBEEF0F3F5F8FAFDFF20036B006200D4
:1004B0006400360037006D006B006900690072004F
:1004C00067006200200076003200000010034B003D
:1004D00042004400660061006E00730000000403E7
:1004E000090409023B00020100A0FA09040000010E
:1004F00003010100092111010001224000070581CB
:100500000308000A09040100010300000009211189
:1005100001000122B6000705820320000A12011023
:100520000100000008424B251202000102000105F3
:10053000010902A10185020901A10005091901298A
:10054000081500250195087501810205010930098A
:10055000311581257F950275088106093815812599
:100560007F950175088106050C0A38021581257FE3
:10057000950175088106C0C005010980A1018503A8
:1005800019012AB700150126B700950175108100E1
:10059000C0050C0901A101850419012AA002150159
:1005A00026A002950175108100C005010906A10170
:1005B0008505050719E029E715002501950875014E
:1005C00081020507190029EF1500250195F0750135
:1005D000810205081901290595057501910295010A
:1005E00075039101C005010906A101050719E0295C
:1005F000E7150025019508750181029501750881AF
:10060000010507190029FF150026FF00950675084A
:1006100081000508190129059505750191029501CB
:1006200075039101C00011241FBECFEFDAE0DEBFD9
:10063000CDBF04B603FE27C0809192069091930629
:10064000A0919406B09195068730904BA740B04B8F
:10065000D1F4109292061092930610929406109282
:10066000950614BE84B7877F84BF0FB6F894A8950B
:1006700080916000886180936000109260000FBEDE
:10068000E0E0F8E3099513E0A0E0B1E0ECEAFEE574
:1006900002C005900D92A43CB107D9F726E0A4EC66
:1006A000B3E001C01D92A239B207E1F70E943029E0
:1006B0000C94542F0C94000081E00E9461130C9460
:1006C000832680E00E9461130C9469260E94A5197C
:1006D00081FF07C02FEF4FEF6FEF8EE190E00C949A
:1006E0003E0D089581E0089581E008950C9474030F
:1006F00008950C9478031F93CF93DF9300D000D01C
:100700001F92CDB7DEB749835A836B83309149047A
:1007100089819A81311114C0662359F0222349F04E
:100720000E94C323182F682F89819A810E946C230D
:1007300003C00E949723182F69817A81812F04C0FA
:100740000E94C32369817A810F900F900F900F90C0
:100750000F90DF91CF911F910C943704FC01262F4D
:10076000408151816281738184810C947B03CF939A
:10077000DF93EC0160E00E94AE03BE01DF91CF91F8
:100780000C9479030E9481270E94FD24811102C0EC
:100790000E94A4250E9433130C945A060C9456060A
:1007A00008950E94781E0E94D0032FEF84E39CE0FE
:1007B000215080409040E1F700C000000C94562783
:1007C0000F931F93CF93DF93EC0161E00E94AE0380
:1007D0008C01BE010E947603882379F1BE01C80115
:1007E0000E943E17882349F1BE01C8010E9490175C
:1007F000882319F1BE01C8010E94BB188823E9F0C3
:10080000BE01C8010E946B168823B9F08A81882333
:1008100069F001158CE5180731F00F3D1C4531F4E6
:100820000E94A4250AC00E94D10307C0CE01DF9117
:10083000CF911F910F910C94720380E0DF91CF91C3
:100840001F910F91089508950C94230481E0089559
:100850000C942604CF93C82F0E9424048C2F0E944E
:100860002804CF91089580E090E0089508952BE446
:10087000829FC0011124FC012FE0729FE00DF11D49
:100880001124E60FF11DEE0FFF1FEE5AFE4F85916A
:1008900094910895880F991FFC01E655FC4F8591AE
:1008A00094910895CF93DF930E9437040E946A05C4
:1008B000EC018115904508F041C0C11580E4D807CE
:1008C00008F0D1C0C83ED10510F5C03ED10508F0F2
:1008D000FDC0C83AD10578F4C53AD10508F0A2C0E8
:1008E000C130D10509F4F2C008F4EEC0C430D1051E
:1008F00008F0ECC0E9C0CF3BD10508F49BC0C03C78
:10090000D10508F4E1C0CE01805C91099EC0C115FB
:1009100090E2D90758F4C11521E0D20708F0D6C0FB
:10092000CD3ED10508F4D0C0D065D0C0C11580E35C
:10093000D80708F08EC0CE019F7087C0C11595E51D
:10094000D90708F043C0C11524E5D20708F0A2C0BA
:10095000C11582E5D80708F5C11591E5D90708F05A
:1009600085C0CE0174E0969587957A95E1F78370FE
:100970009C2F937021E030E002C0220F331F9A9524
:10098000E2F73C68382BCF70C695C69580E2C89FC9
:10099000E0011124C22BD32B99C09E012370332771
:1009A0008C2F86958695C115D34508F064C0C1E0AB
:1009B000D0E002C0CC0FDD1F2A95E2F720E2829F33
:1009C000C0011124C82BD92BDC6880C0C11529E5D2
:1009D000D207A0F4C11588E5D80708F060C0C1159A
:1009E00096E5D90708F070C08C2F0E94FE058F7124
:1009F000C82FD0E0DC2FCC27D06268C0C1152AE513
:100A0000D20708F451C0CE0190568115904208F0EB
:100A10005BC08D2F8F710E94FE05DD27D0628F7124
:100A2000D82B54C0C55AD0E0C459DC4FC881D0E09F
:100A3000D0644CC0C85AD0E0CC0FDD1FC25CDC4F84
:100A40000990D881C02DD46441C00E944A04EC01B1
:100A50003DC0CE019927D3FF03C0EC01D86C36C04E
:100A6000EC01D06C33C0DF70D06A30C0DC2FCC27F3
:100A7000C16FD06A2BC0C1E0D0E002C0CC0FDD1F37
:100A80002A95E2F720E2829FC0011124C82BD92BBE
:100A9000DA681CC0DC2FCC27C46FD06A17C0DC2FEB
:100AA000CC27C06FD06A12C08C2F8F700E94FE05B9
:100AB00094E0D695C7959A95E1F7CF70D0E0DC2FFA
:100AC000CC27D069C82B02C0C0E0D0E0CE01DF91B6
:100AD000CF9108958238910569F1B0F48133910581
:100AE00009F46DC048F48932910509F463C08A3273
:100AF000910509F469C008958533910509F455C03D
:100B000089339105B9F00895833E910569F138F470
:100B1000803E9105B1F0823E910509F10895863E2F
:100B20009105A9F1873E9105B9F1843E910509F03F
:100B300064C023C02091830620FD4FC021FD4DC01D
:100B400008958091830680FD44C08091840680FFD3
:100B500044C08091830684FD42C083EE4DC08091E5
:100B6000830682FF38C0F5CF8091830682FD33C0B3
:100B70008091840680FD31C0ECCF8091840681FF96
:100B800032C08091830684FD2AC087EE35C08091F3
:100B9000830683FF26C0F5CF8091830683FD21C0A5
:100BA0008091840681FD1FC0ECCF8091830685FD76
:100BB0001CC01DC08091830685FD19C016C08091A0
:100BC000830686FD16C017C08091830686FD13C07C
:100BD00010C089E311C082EE0FC080EE0DC080E02E
:100BE0000BC086EE09C084EE07C089E205C085E32C
:100BF00003C08AE201C081E390E0089590918306EA
:100C000092FF0DC0282F2871283019F4877F846047
:100C100006C0282F2471243011F48B7F886093FF45
:100C20000DC0282F2871283119F4877E846106C0F1
:100C3000282F2471243111F48B7E88612091840641
:100C400020FF0DC0382F3871383019F4877F81604C
:100C500006C0382F3171313011F48E7F886021FF4A
:100C60000DC0282F2871283119F4877E816106C0B4
:100C7000282F2171213111F48E7E886194FD877EA9
:100C80000895E82FF0E0EE0FFF1FE15FFA4F80813B
:100C900091810895089580EA8A95F1F7089500C03A
:100CA00008950C944B0608950C9453060C94540626
:100CB0000C9453060C945806F894E82FE295EF70C4
:100CC000F0E031A1282F2F7081E090E001C0880F63
:100CD0002A95EAF7982F9095932391A392A1892BB7
:100CE00082A3789408950F931F93CF93DF9380EF9F
:100CF0000E945C0681EF0E945C0684EF0E945C0605
:100D000086EC0E945C0686E60E945C06CFE6D3E095
:100D10000EE713E089910E945C060C171D07D1F7BE
:100D2000E5E0F5E0AFE0B5E0119211921D921D9261
:100D300085E0EF30F807C1F785E00E943807DF91C2
:100D4000CF911F910F910C94C2037F928F929F922B
:100D5000AF92BF92CF92DF92EF92FF920F931F93C9
:100D6000CF93DF9305E015E08EE7E82E83E0F82EC1
:100D7000C0E0D0E0712CAA24A394B12C4701F70164
:100D80008081F894E82FE295EF70F0E021A18F7058
:100D9000A50102C0440F551F8A95E2F7CA01922FA0
:100DA000982B91A392A18095892382A378940E9485
:100DB0004F06EFE6F3E020E030E0C12CD12C41916A
:100DC000A42FA295AF70B0E090968C9190E04F70F8
:100DD00002C0959587954A95E2F780FD08C0C50148
:100DE000022E02C0880F991F0A94E2F702C080E029
:100DF00090E0C82AD92A2F5F3F4F2F303105F9F6EE
:100E00005FEFE51AF50AF40180810E945C06C430A8
:100E1000D10511F00E945106F80180819181C81618
:100E2000D90621F0D182C08281E001C080E0782A19
:100E300021960E5F1F4FC530D10509F09FCF272D9A
:100E400045E06FE075E085E095E00E9439070E947B
:100E5000CE03872DDF91CF911F910F91FF90EF90DF
:100E6000DF90CF90BF90AF909F908F907F9008952C
:100E70000895FF920F931F93CF93DF93F82E092FBE
:100E8000162FD72FC42F222349F081E08093C80367
:100E90000E94ED269093C7038093C6038091C803F8
:100EA0008823D9F08091C6039091C7030E9405273B
:100EB000049798F0EF2DF02FA12FBD2F80E090E048
:100EC0004C2F50E08417950734F4219131912D93E4
:100ED0003D930196F7CF1092C803DF91CF911F91F8
:100EE0000F91FF9008958091CF0380FF0BC0609118
:100EF000190285E0689FB001112475956795759575
:100F000067952BC081FF09C06091190285E0689F39
:100F1000B00111247595679520C082FF07C06091CC
:100F2000190285E0689FB001112417C09091CE038B
:100F30009923D1F060911802961788F72091190231
:100F400085E0289F90011124929FA001939F500D4E
:100F5000112470E0CA010E949E2E6038710540F491
:100F60006115710519F406C065E070E0862F0895DB
:100F70008FE7089581E008958091CF0380FF08C036
:100F80006091150270E0759567957595679521C01C
:100F900081FF06C06091150270E07595679519C0D4
:100FA00082FF04C06091150270E010C09091CD03E3
:100FB000992399F0609114029617A0F78091150279
:100FC000899FC001112470E00E949E2E6038710537
:100FD00040F46115710519F406C061E070E0862FD8
:100FE00008958FE7089581E008958D3E21F40E94D1
:100FF0007307819504C08E3E29F40E947307809385
:10100000D30308958F3E21F40E947307819504C095
:10101000803F29F40E9473078093D2030895893F8B
:1010200019F40E94BC0705C08A3F31F40E94BC0736
:1010300081958093D40308958B3F21F40E94BC07CF
:10104000819504C08C3F29F40E94BC078093D5038E
:1010500008959FE0980F983078F421E030E0A901DE
:1010600002C0440F551F9A95E2F7CA019091D1032F
:10107000892B8093D10308958D3F21F48091CF0374
:1010800081600BC08E3F21F48091CF03826005C048
:101090008F3F29F48091CF0384608093CF0308951C
:1010A0008D3E39F49091D30397FF35C01092D3034E
:1010B00059C08E3E29F49091D3031916BCF32BC06E
:1010C0009091D2038F3E29F497FF25C01092D2034E
:1010D00049C0803F19F41916CCF31DC09091D40378
:1010E000893F29F41916BCF41092D4033BC08A3FFF
:1010F00019F497FF10C0F8CF8B3F39F49091D503C6
:1011000097FF09C01092D5032DC08C3F21F4909118
:10111000D5031916BCF39FE0980F983080F421E0B6
:1011200030E0A90102C0440F551F9A95E2F7CA01A9
:1011300080959091D10389238093D10313C08D3F73
:1011400021F48091CF038E7F0BC08E3F21F48091DC
:10115000CF038D7F05C08F3F29F48091CF038B7F14
:101160008093CF038091D203811106C08091D30375
:10117000811102C01092CE038091D403811106C068
:101180008091D503811102C01092CD0308950E9471
:10119000ED262091D203211104C02091D3032223F4
:1011A00021F09093CC038093CB032091D4032111A1
:1011B00004C02091D503222321F09093CA03809389
:1011C000C90380ED93E00C94CB19EF92FF920F933B
:1011D0001F93CF93DF9300D000D000D0CDB7DEB700
:1011E00086E0E0EDF3E0DE01119601900D928A9524
:1011F000E1F7E090D203F090D3030091D403109173
:10120000D5031092D2031092D3031092D4031092FC
:10121000D503E11003C0FF2009F45DC08091CB032A
:101220009091CC030E940527AC019091CE039923A5
:1012300039F020911A0230E02417350758F04BC0DE
:1012400020911B028AE0289F900111242417350762
:1012500018F041C09F3F19F09F5F9093CE03EE209E
:1012600061F00E9473071E1414F09FEF01C091E01B
:10127000989F902D11249093D203FF2061F00E943B
:1012800073071F1414F09FEF01C091E0989F902DF9
:1012900011249093D3033091D2033323E1F02091B2
:1012A000D3032223C1F045EB3403C0011124992359
:1012B00019F09093D20303C081E08093D20335EB01
:1012C0002303C0011124992319F09093D30303C081
:1012D00081E08093D303011103C0112309F45DC0A1
:1012E0008091C9039091CA030E940527AC01909197
:1012F000CD03992339F02091160230E024173507E9
:1013000058F04BC0209117028AE0289F90011124C9
:101310002417350718F041C09F3F19F09F5F909345
:10132000CD03002361F00E94BC07101614F09FEF5C
:1013300001C091E0989F902D11249093D403112324
:1013400061F00E94BC07111614F09FEF01C091E0FC
:10135000989F902D11249093D5033091D40333237B
:10136000E1F02091D5032223C1F045EB3403C00105
:101370001124992319F09093D40303C081E0809342
:10138000D40335EB2303C0011124992319F0909362
:10139000D50303C081E08093D5038091D2038111EE
:1013A0000BC08091D303811107C08091D4038111B8
:1013B00003C08091D50381110E94C708EB82FC8293
:1013C0000D831E8386E0FE013196A0EDB3E001900F
:1013D0000D928A95E1F726960FB6F894DEBF0FBE00
:1013E000CDBFDF91CF911F910F91FF90EF900895A6
:1013F000E0EDF3E086E0DF011D928A95E9F71092B7
:10140000CE031092CD031092CF030895EF92FF9276
:101410000F931F93CF93DF938B01682F11110AC095
:10142000442329F0E82FF0E0E655FC4F6491762F35
:10143000862F75C0212F30E0E82FF0E0442321F003
:10144000E655FC4FE491F0E046E0049FC001112412
:10145000CFEFD0E0BE010E948A2E4BEA4603C001C6
:10146000479F900D1124800F911D800F911D982F83
:10147000990F890FAE01421B530B4E9FD0014F9F16
:10148000B00D5E9FB00D11249B2F189FA001112459
:10149000452F55278E01041B150B0E9FA0010F9F92
:1014A000500D1E9F500D11247E01E81AF108E29E96
:1014B0008001E39E100DF29E100D1124212F332781
:1014C000C21BD30BCE9F9001CF9F300DDE9F300DFE
:1014D000112462307105A9F048F46115710569F0B5
:1014E00061307105C9F48B2F752F0DC06430710503
:1014F00081F058F06630710579F47E2F8B2F932F91
:101500000DC0832F7B2F9E2F09C08E2F7B2F952FF1
:1015100005C08E2F732F02C07E2F852F692FDF917C
:10152000CF911F910F91FF90EF90089541E00E949D
:10153000060A089520E030E0869F212D969F200D19
:10154000311D1124C9010895BC018230910508F4B0
:101550000895613E8EE1780748F49B0195E0369549
:1015600027959A95E1F748E0420F01C04FEF91E0CF
:10157000242F30E0290F311D35952795229FF0014A
:10158000239FF00DF00D11246E177F0718F44FEF15
:10159000420F04C02F3F39F091E0920F491740F7F6
:1015A0008FEF890F08958FEF0895482F982F46FDEC
:1015B0009095E92FEF739F7046FD9F5FE295EF7066
:1015C000EE0FF0E0ED57FC4F2181299F802D212D5A
:1015D000112482958F702295207F822B3081982F45
:1015E000930F892F47FD819580580895E42FF0E0EF
:1015F000EE0FFF1FE55BFE4F408134EE439F412D10
:101600001124E82FF0E050E0445E5F4FDA01A21BA6
:10161000B1099D01B7FF03C031952195310993E0D0
:10162000220F331F9A95E1F7AF01421B530B9A012A
:1016300057FF02C020E030E0582F259F212D1124B4
:10164000822F0895622F0895E42FF0E0EE0FFF1F20
:10165000E55BFE4F6081621B0895E42FF0E0EE0F22
:10166000FF1FE45BFE4F6081621B0895A22F50E0D4
:10167000FA01EE0FFF1FE45BFE4F9081905297FD41
:101680009195440F551FFA01E55BFE4F3081232FE2
:1016900030E02A1B3109290F311D97FD3A95620F61
:1016A0000895EF920F931F9393E0099F80011124F7
:1016B000159507956E2D600F1F910F91EF9008956E
:1016C0000F93CF93DF93D72FC82F47FD4195E8E3C2
:1016D000F0E0CF01841B910947FD9395889FB001ED
:1016E000899F700D700D1124229FC001239F900DC2
:1016F000900D1124860F971F0E94A40A682F660F71
:10170000860F682F600F7D2F8C2FDF91CF910F9167
:1017100008950F931F93522F10E0F801EE0FFF1F53
:10172000E45BFE4FE081F0E0B0979F015203D001EF
:10173000539FB00D1124000F111FF801E55BFE4F00
:10174000008110E00057110940039001419F300DC6
:1017500011242A0F3B1F37FF02C021583F4F220F91
:10176000232F221F330B620F1F910F9108950F93A8
:101770001F93522F10E0F801EE0FFF1FE45BFE4FA6
:10178000E081F0E0B097EE0FFF1F9F015203D00100
:10179000539FB00D1124000F111FF801E55BFE4FA0
:1017A000008110E000571109000F111F4003900144
:1017B000419F300D11242A0F3B1F37FF02C02158D3
:1017C0003F4F220F232F221F330B620F1F910F91C8
:1017D00008950F931F9310E0F801EE0FFF1FE55BD4
:1017E000FE4F9081905797FD9195000F111FF801C2
:1017F000E45BFE4FE081F0E0B097DF01AA0FBB1F72
:101800008D010E0F1F1F2003D001219FB00D112449
:10181000E8E3F0E0E91BF10997FDF3959F01220F42
:10182000331F89010E0F1F1F40039001419F300D90
:1018300011242A0F3B1F37FF02C021583F4F220FB0
:10184000232F221F330B620F1F910F9108950F93C7
:101850001F93CF93DF93D62F072F182FC42F822FDC
:101860000E94D50AEC2FF0E0EE0FFF1FE55BFE4F64
:1018700090819058890F87FD8195880F682F2CE003
:10188000629F612D11246D0F702F812FDF91CF91F9
:101890001F910F910895E42FF0E0EE0FFF1FE55B1D
:1018A000FE4F9081921B97FD9195292F38E1239F40
:1018B000212D1124620F089522E8241B08F420E052
:1018C000620F0895FC019B01009721F477FF2BC064
:1018D00080E80895AC0197FF04C044275527481BB2
:1018E000590BB901640F751F37FD0CC0241B350B54
:1018F000C901A5E0880F991FAA95E1F70E949E2EC5
:1019000080E20CC0CB0165E0880F991F6A95E1F772
:10191000BA01621B730B0E949E2E80E6861BF7FFA6
:1019200003C08195089580E00895FF920F931F935F
:10193000CF93DF93F62ED72F182FC901C12FC01BCD
:10194000BA010E94620C982F990F890FC81B2C2F87
:10195000219F212D1124822F6F2D7D2FDF91CF917B
:101960001F910F91FF900895EF920F931F93CF93C4
:10197000DF93D62FC72F182FC9010E19010FBA01F7
:101980000E94620C081B202F219F212D1124822FE1
:101990006D2F7C2FDF91CF911F910F91EF900895C4
:1019A0000F93CF93DF93D72FC82FC901BA010E949D
:1019B000620C682F600F7D2F8C2FDF91CF910F91DC
:1019C0000895EF920F93CF93DF93D72FC82FC901BC
:1019D0000E19BA010E94620C602F681B7D2F8C2F9C
:1019E000DF91CF910F91EF9008950E94960A08958C
:1019F00045E050E06CE170E089E195E00C94022F45
:101A000045E050E06CE170E089E195E00C94202F16
:101A1000E9E1F5E081E2808380912F02909130022C
:101A2000A091310281839283A3838FE784830C94F6
:101A3000000D80E008950F931F93CF93DF93C82F7D
:101A4000D62F8A010E94190D9FE0C99FF001112431
:101A5000E050FF4FED0FF11D90819F3F29F0F801FD
:101A6000E80FF11D90838F5FDF91CF911F910F9150
:101A70000895E0919103F09192030994E0918D0310
:101A8000F0918E0309944F925F926F927F928F92A2
:101A90009F92AF92BF92CF92DF92EF920F931F93DC
:101AA000CF93DF932C013B01FC01C081CC0FCC0F05
:101AB000D4E0DC0FD43408F0D3E460911D056695C2
:101AC00080911E0590911F050E949A0A182FCD172C
:101AD00008F044C08C2E912CF401EF52FE4F9081FF
:101AE000F20181818923C1F1F401EE0FFF1FE55B53
:101AF000FE4FC080D12CF0E7CF1AD108F401EE0FD1
:101B0000FF1FE45BFE4FA080B12C80E2A81AB10851
:101B1000CC9C9001CD9C300D300D1124AA9CC001AD
:101B2000AB9C900D900D1124820F931F0E94A40A6C
:101B3000082F60911A0570911B0580911C05E12EFC
:101B40009501A601F30109950E94F50C462F282F57
:101B5000672FC4010E943E0DCF5FB9CF81E0D3341F
:101B600008F080E0DF91CF911F910F91EF90DF900F
:101B7000CF90BF90AF909F908F907F906F905F902D
:101B80004F90089564EB7CE00C94430D61E57BE09D
:101B90000C94430D61EE7CE00C94430DAF92BF9228
:101BA000CF92DF92EF92FF920F931F93CF93DF9329
:101BB0006C015B01FC01C081CC0FCC0FD4E0DC0FC9
:101BC000D43408F0D3E460911D05669580911E051C
:101BD00090911F050E949A0A182FCD1778F5EC2EC8
:101BE000F12CF701EF52FE4F9081F601818189239C
:101BF00019F1F701EE0FFF1FE45BFE4F208130E08B
:101C000020523109F701EE0FFF1FE55BFE4F4081C7
:101C100050E04057510960911A0570911B05809161
:101C20001C05012FF50109950E94F50C462F282F60
:101C3000672FC7010E943E0DCF5FCFCF81E0D33425
:101C400008F080E0DF91CF911F910F91FF90EF900E
:101C5000DF90CF90BF90AF90089565E97CE00C9441
:101C6000CE0D60E67BE00C94CE0D60ED7CE00C9434
:101C7000CE0DBF92CF92DF92EF92FF920F931F9300
:101C8000CF93DF938C017B01FC01C081CC0FCC0F83
:101C9000D4E0DC0FD43408F0D3E460911D056695E0
:101CA000669580911E0590911F050E949A0AB82E94
:101CB000CD17F0F4CC2ED12CF601EF52FE4F9081CF
:101CC000F8018181892391F060911A0570911B05BB
:101CD00080911C052B2D4C2FF70109950E94F50CC6
:101CE000462F282F672FC6010E943E0DCF5FE0CF01
:101CF00081E0D33408F080E0DF91CF911F910F9104
:101D0000FF90EF90DF90CF90BF90089566EF7AE05C
:101D10000C94390E62E27BE00C94390E64E27BE0B5
:101D20000C94390E6DE27BE00C94390E66E37BE097
:101D30000C94390E67E27CE00C94390E6BE47CE085
:101D40000C94390E7F928F929F92AF92BF92CF9256
:101D5000DF92EF92FF920F931F93CF93DF936C016B
:101D60005B01FC01C081CC0FCC0FD4E0DC0FD4347C
:101D700008F0D3E460911D056695669580911E0577
:101D800090911F050E949A0A182F80E4810F0E94EB
:101D9000D50A90E8F92EF80E812F0E94D50A20E886
:101DA000722E780ECD1700F58C2E912CF401EF5287
:101DB000FE4F9081F60181818923A1F060911A057F
:101DC00070911B0580911C05E12E0C2F272D4F2DA6
:101DD000F50109950E94F50C462F282F672FC401A5
:101DE0000E943E0DCF5FDECF81E0D33408F080E06B
:101DF000DF91CF911F910F91FF90EF90DF90CF90E7
:101E0000BF90AF909F908F907F90089569E87BE09E
:101E10000C94A20E67EB7BE00C94A20E69EE7BE0C3
:101E20000C94A20EAF92BF92CF92DF92EF92FF92EC
:101E30000F931F93CF93DF937C015B01FC01C08163
:101E4000CC0FCC0FD4E0DC0FD43408F0D3E42091D5
:101E50001D0530E040E050E06FEF7FEF80E090E064
:101E60000E94B22E8901CD17E8F5CC2ED12CF601B7
:101E7000EF52FE4F9081F7018181892389F1909182
:101E80002205915097FD15C0292F092E000C330B08
:101E9000F901EE5DFA4F8189C813F3CF220F331F8A
:101EA000F901EE5DFA4F218D328D2017310748F789
:101EB00001C0980160911D05C9010E949A0AAC01F8
:101EC00060911A0570911B0580911C05F50109951B
:101ED0000E94F50C462F282F672FC6010E943E0D49
:101EE000CF5FC1CF81E0D33408F080E0DF91CF91A4
:101EF0001F910F91FF90EF90DF90CF90BF90AF9028
:101F000008956CE57CE00C94120FDF92EF92FF9243
:101F10000F931F93CF93DF938C01DC01CC91CC0FF7
:101F2000CC0FD4E0DC0FD43408F0D3E460911A0570
:101F300070911B0580911C050E94F50CF62EE72E72
:101F4000D82ECD1798F4EC2FF0E0DF01AF52BE4F42
:101F50008C91D80111969C91982331F02D2D4F2D05
:101F60006E2DCF010E943E0DCF5FEBCF81E0D334C9
:101F700008F080E0DF91CF911F910F91FF90EF90DB
:101F8000DF900895AF92BF92CF92DF92EF92FF92CF
:101F90000F931F93CF93DF938C01FC01C081CC0F73
:101FA000CC0FD4E0DC0FD43408F0D3E4E0901B0570
:101FB000F0901C05D0901A056D2D7E2D8F2D0E945E
:101FC000F50CC62EB72EA82E60911D056D0D7E2D29
:101FD0008F2D0E94F50CF62EE72ED82ECD17B8F4D3
:101FE0008C2F90E0FC01EF52FE4F3081F8012181EF
:101FF000232359F030FF04C02D2D4F2D6E2D03C02B
:102000002A2D4C2D6B2D0E943E0DCF5FE7CF81E036
:10201000D33408F080E0DF91CF911F910F91FF90B2
:10202000EF90DF90CF90BF90AF900895BF92CF9286
:10203000DF92EF92FF920F931F93CF93DF937C0178
:10204000FC01C081CC0FCC0FD4E0DC0FD43408F0FD
:10205000D3E4C0901B05B0901C0520911D0530E411
:10206000D32E3D2D329F312D1124D32ECD1738F58F
:102070000C2F10E0F801EF52FE4F9081F7018181A3
:102080008923D9F0F801EE0FFF1FE55BFE4F608159
:10209000D69EB001112495E0759567959A95E1F764
:1020A00080911A05680F7C2D8B2D0E94F50C462F10
:1020B000282F672FC8010E943E0DCF5FD7CF81E048
:1020C000D33408F080E0DF91CF911F910F91FF9002
:1020D000EF90DF90CF90BF900895DF92EF92FF9244
:1020E0000F931F93CF93DF938C01DC01CC91CC0F26
:1020F000CC0FD4E0DC0FD43408F0D3E4E0901A0520
:10210000F0901B05D0901C0560911D0566956695A5
:10211000669580911E0590911F050E949A0A0E9463
:10212000D50A805887FD8195880F282F3D2D239F44
:10213000212D1124822FB7010E94F50CF62EE72ED7
:10214000D82ECD1798F4EC2FF0E0DF01AF52BE4F40
:102150008C91D80111969C91982331F02D2D4F2D03
:102160006E2DCF010E943E0DCF5FEBCF81E0D334C7
:1021700008F080E0DF91CF911F910F91FF90EF90D9
:10218000DF900895DF92EF92FF920F931F93CF930A
:10219000DF938C01DC01CC91CC0FCC0FD4E0DC0FB1
:1021A000D43408F0D3E4E0901B05F0901C05D090E7
:1021B0001A0560911D0566956695669580911E05C8
:1021C00090911F050E949A0A0E94D50A805887FDA7
:1021D0008195880F682F2CE0629F612D11246D0D71
:1021E0007E2D8F2D0E94960AF62EE72ED82ECD1723
:1021F00098F4EC2FF0E0DF01AF52BE4F8C91D80184
:1022000011969C91982331F02D2D4F2D6E2DCF01DD
:102210000E943E0DCF5FEBCF81E0D33408F080E029
:10222000DF91CF911F910F91FF90EF90DF90089574
:10223000E0918F03F09190030994CF92DF92EF9297
:10224000FF920F931F93CF93DF93CDB7DEB72897FD
:102250000FB6F894DEBF0FBECDBF182F062FF42E99
:102260000E941F1A882309F46DC0FF2049F0AE01B7
:102270004F5F5F4F602F812F0E941B0DF82E01C012
:10228000F12CE090D6030F2D10E0C8018E0D911DAA
:10229000099764F188E090E06C01C01AD10AB80196
:1022A00069527C4FA60187ED93E00E94F92EB80198
:1022B00061527C4FA6018FED93E00E94F92EA6019A
:1022C000440F551FB801660F771F61517C4F8FEE89
:1022D00093E00E94F92EB80169517C4FA60187EE68
:1022E00093E00E94F92EEA94E092D6031091D6036F
:1022F000DE01119640E0842F810FF41609F190E081
:102300005D91252F30E0BC016A527C4FF901EE0F40
:10231000FF1FE55BFE4F0081FB010183220F331F8E
:10232000F901E45BFE4F2081FB012187518B880F6F
:10233000991FFC01EA52FC4F128E118E4F5FDBCFCA
:102340008093D60328960FB6F894DEBF0FBECDBF9C
:10235000DF91CF911F910F91FF90EF90DF90CF9081
:10236000089508950C94B1110E94B2110C94660363
:1023700008950C94B811CF93DF93FC01C081CC0F6A
:10238000CC0FC450D4E0DC0FD43408F0D3E46D2F6C
:102390008C2F0E94B9116D2F8C2FDF91CF910C944F
:1023A000B8114F925F926F927F928F929F92AF92ED
:1023B000BF92CF92DF92EF92FF92CF936091FF0393
:1023C0007091000480910104909102040E941427EE
:1023D0006B017C010E94F9264B015C016093FF03B5
:1023E000709300048093010490930204A091D6039B
:1023F000E6EDF3E08A2F90E04FEF5FEF60E070E0F2
:102400004C195D096E097F09A91799F0218D328D4C
:102410002901612C712C441555056605770510F4CA
:10242000815004C02C0D3D1D328F218F9F5F32964D
:10243000EBCF8093D60380910304811108C0C09133
:1024400019058C2F837019F0C695C69501C0C0E0A0
:1024500080911C028130E9F038F0823009F4D4C058
:10246000833009F4E1C0F1C010921D0280921E0574
:1024700090921F05A0922005B092210589E2E6ED19
:10248000F3E0A2E2B5E001900D928A95E1F781E0D8
:10249000C5C080912002C8130DC02091190523707A
:1024A00030E04091210250E081E02417350719F413
:1024B00080E001C081E0817080931F024C2F50E0CA
:1024C0004731510508F07CC0FA01EA5AFF4F0C94DD
:1024D000D12E882309F474C040E060E080E00E94BF
:1024E00018116EC08DE192E00E94850F6AC08DE1E7
:1024F00092E00E94C20F65C08DE192E00E9416102A
:1025000060C08DE192E00E946D105BC08DE192E0B1
:102510000E94860E56C08DE192E00E942D0E51C0A1
:102520008DE192E00E94C20D4CC08DE192E00E94CC
:102530008A0E47C08DE192E00E948E0E42C08DE16E
:1025400092E00E94920E3DC08DE192E00E94960EB4
:1025500038C08DE192E00E94C60D33C08DE192E05B
:102560000E94310E2EC08DE192E00E94350E29C0EE
:102570008DE192E00E94CA0D24C08DE192E00E949C
:10258000060F1FC08DE192E00E940A0F1AC08DE174
:1025900092E00E940E0F15C08DE192E00E94C210E1
:1025A00010C08DE192E00E949A0E0BC08DE192E086
:1025B0000E949E0E06C08DE192E00E94810F01C034
:1025C00080E090911D029F5F90931D02811129C0B0
:1025D00082E080931C0280911F02811122C0CC23D3
:1025E000E1F00E94B4118DE192E0CF91FF90EF9065
:1025F000DF90CF90BF90AF909F908F907F906F9023
:102600005F904F900C94BB11C093200280911905EC
:102610008370809321020E94390D83E080931C0215
:1026200014C0CC2391F0DDCF60911E0570911F0581
:1026300080912005909121050E9414276A3171052F
:102640008105910510F010921C02CF91FF90EF9040
:10265000DF90CF90BF90AF909F908F907F906F90C2
:102660005F904F900895E0918B03F0918C03099552
:1026700010922205EBE3F5E08FEF9FEF81939193AA
:1026800025E0EB34F207D1F71092D603EFEEF3E03A
:102690008FEF9FEF8193919323E0EF3FF207D1F704
:1026A0000E94FD24811104C00E94A4250E94080DEF
:1026B0000E94F80C809119058C7F11F40C94080D80
:1026C0000895CF93C82F882329F040E060E080E090
:1026D0000E941811C0930304CF9108952091190509
:1026E00091E092279093190510921C0281110C948D
:1026F000000D089581E00C946E139091190593706C
:1027000091F0811102C0946007C0873110F0986584
:1027100003C0880F880F982B9093190510921C0204
:1027200061110C94000D089561E00C947D13682FE5
:1027300090911905969596959F5F973110F4892F82
:1027400001C081E00C947D1381E00C949713682FF5
:102750009091190596959695915011F0892F01C089
:1027600086E10C947D1381E00C94A71390911905D8
:10277000937049F080931A0560931B0540931C05E4
:1027800021110C94000D0895A9E1B5E01196EC918A
:102790001197F0E0282F13964C91139712966C9195
:1027A000CF0108960C94B61381E00C94C413A9E1F0
:1027B000B5E01196EC911197F0E0282F13964C910B
:1027C000139712966C91CF0108970C94B61381E081
:1027D0000C94D713E9E1F5E0628120E1620F08F47F
:1027E0006FEF9181282F4381892F90E00C94B613CD
:1027F00081E00C94EA13E9E1F5E0628120E1621BDB
:1028000008F460E09181282F4381892F90E00C9497
:10281000B61381E00C94FB13E9E1F5E0438120E17C
:10282000420F08F44FEF9181282F6281892F90E0A9
:102830000C94B61381E00C940C14E9E1F5E04381AB
:1028400020E1421B08F440E09181282F6281892F0A
:1028500090E00C94B61381E00C941D1420911D059A
:1028600030E1230F08F42FEF20931D0581110C9404
:10287000000D089581E00C942E1420911D0530E187
:10288000231B08F420E020931D0581110C94000DFA
:10289000089581E00C943D1460E084E70E941B16CB
:1028A00061E087E70C941B16CF930E94EC1884E735
:1028B0000E94A11487E70E94A114C0E021E041E03A
:1028C00061E08C2F0E943715CF5FC334B9F760E009
:1028D00084E70E94331661E087E7CF910C943316AA
:1028E000EBE6F6E06083418324E630E042E050E02E
:1028F000BF01880F0C9479190F931F93CF93DF9327
:10290000082F000FEB0114E210936B06ECE6F6E0E3
:10291000DE018D91819386E0EC37F807D1F724E64C
:1029200030E041E150E06BE676E0802F0E947919BB
:10293000105F6096143B41F7DF91CF911F910F918B
:102940000895CF93DF93C82F4BE06DEF0E94701472
:1029500040E06AE08C2F0E9470148FE39CE901979D
:10296000F1F700C0000040E060E08C2F0E9470147E
:1029700040E061E08C2F0E94701440E066E08C2FF4
:102980000E94701440E06DEF8C2F0E947014D0E014
:1029900040E06D2F8C2F0E947014DF5FD231C1F7A1
:1029A00040E06D2F8C2F0E947014DF5FD432C1F78E
:1029B00040E06D2F8C2F0E947014DF5FD43BC1F775
:1029C0004BE06DEF8C2F0E94701441E06AE08C2F79
:1029D0000E94701440E06DEF8C2FDF91CF910C942A
:1029E00070148334910540F5880F991F880F991F43
:1029F000FC01EE5CFD4F52813381808183707181D7
:102A0000A82FB0E0E0E98E9FC0011124855B9A4FAA
:102A1000FC01E70FF11DB4976083FC01E50FF11D88
:102A2000B4974083830F911DFC01B4972083FD016F
:102A3000E65DFB4F81E080830895FF920F931F9323
:102A4000CF93DF93182F062FF42EC0E0D0E02F2D68
:102A5000402F612FCE010E94F1142196C334D1057D
:102A6000B1F7DF91CF911F910F91FF9008957F9261
:102A70008F929F92AF92BF92CF92DF92EF92FF928E
:102A80000F931F93CF93DF93362F54E0859FC001A0
:102A90001124FC01EE5CFD4F60816370762E618134
:102AA00070E0CB0184978C0197FF02C0095F1F4F34
:102AB000A3E015950795AA95E1F7628170E07B0187
:102AC00054E2E51AF108E701F7FC279673E0D59583
:102AD000C7957A95E1F7638170E04B0154E2851A5E
:102AE0009108F40197FC379653E0F595E7955A95D0
:102AF000E1F768E0A62EB12CB5010E949E2E6C0174
:102B0000C701B5010E949E2E7C01C401B5010E943F
:102B10009E2E1127672D70E0DD24332399F032E1DA
:102B2000369FD001379FB00D1124AA5FBB4FA00F75
:102B3000B11F01E010E001C0000FCA94EAF73C9118
:102B4000032B13C032E1369FD001379FB00D112403
:102B5000AA5FBB4FA00FB11F01E010E001C0000F42
:102B6000CA94EAF700953C9103230C93DD27FF24D8
:102B700032E1442391F0369FA001379F500D11247C
:102B80004A5F5B4FC40FD51F41E050E001C0440FC6
:102B9000EA94EAF73881432B12C0369FA001379F91
:102BA000500D11244A5F5B4FC40FD51F41E050E028
:102BB00001C0440FEA94EAF74095388143234883E3
:102BC000AF015527992792E1969FF001979FF00D4D
:102BD0001124EA5FFB4FE40FF51F222361F021E08F
:102BE00030E0A90102C0440F551F8A95E2F7CA01DF
:102BF0009081892B0CC021E030E0A90102C0440F74
:102C0000551F8A95E2F7CA018095908189238083B8
:102C1000FB01EC5FFB4F81E08083DF91CF911F913F
:102C20000F91FF90EF90DF90CF90BF90AF909F906B
:102C30008F907F900895CF93DF93262F30E0E901A6
:102C4000C65DDB4F9881992351F090E9929FB001C6
:102C5000939F700D1124655B7A4F0E947C1418823B
:102C6000DF91CF910895DF92EF92FF920F931F9320
:102C7000CF93DF93262F30E0A9014C5F5B4F7A01A1
:102C8000FA01908191110AC0F7011082DF91CF9172
:102C90001F910F91FF90EF90DF900895D82EF2E1F1
:102CA0006F9FE001112400E010E0F801EC0FFD1F20
:102CB000EA5FFB4F4081602F8D2D0E9470140F5FE3
:102CC0001F4F0231110589F7DFCF882311F0FA0178
:102CD00001C0FB0109940F931F93CF93FB01C281A5
:102CE000CC2309F450C08C010E9444248272F80164
:102CF000E35CFC45E431F10508F048C0E359FF4FBF
:102D00000C94D12E0E947A1340C043EB53E164EA45
:102D100073E104C044EA53E163EB73E10E9465167A
:102D200034C047EE53E164ED73E1F8CF44ED53E175
:102D300067EE73E1F3CF49E054E168EF73E1EECF62
:102D400048EF53E169E074E1E9CF4BE254E16AE115
:102D500074E1E4CF4AE154E16BE274E1DFCF49E48E
:102D600054E16AE374E1DACF4AE354E169E474E1DF
:102D7000D5CF81E005C084E003C089E001C08EE0CA
:102D80000E94941302C0C1E001C0C0E08C2FCF911B
:102D90001F910F9108950F931F93CF93DF93C42F2B
:102DA000D22FFC0182818823C9F040932E040E9417
:102DB000ED2690932D0480932C0480E28C0F8830B4
:102DC00008F057C0C77081E001C0880FCA95EAF7C4
:102DD000DF91CF911F910F910C94EB1B80912E04EA
:102DE000481330C080912C0490912D040E94052737
:102DF000883C910538F510E21D0FCD17B9F080E23F
:102E00008C0F883040F4C77081E001C0880FCA95EC
:102E1000EAF70E94F21B183028F581E09D2F977089
:102E200001C0880F9A95EAF70E94EB1B802F0E9441
:102E3000E21B1830F0F4D77081E001C0880FDA95FA
:102E4000EAF70AC080E28C0F883098F4C77081E0FE
:102E500001C0880FCA95EAF7DF91CF911F910F91BA
:102E60000C94F21B802FDF91CF911F910F910C9446
:102E7000E21BDF91CF911F910F9108950F939C0159
:102E8000CB01243F4CE5340731F188F4293DFCE5C2
:102E90003F07D9F02A3D4CE5340779F1283D3C4500
:102EA000A9F506E221EE41EE68ED7CE52BC0263F58
:102EB000FCE53F07E1F0A8F0273F3C4539F507E284
:102EC00025EE46EE67EF7CE51DC007E225EE45EEF8
:102ED00069ED7CE517C006E221EE40EE64EF7CE58B
:102EE00011C007E225EE44EE65EF7CE50BC006E27B
:102EF00021EE42EE66EF7CE505C008E221E045EEFA
:102F00006AED7CE50E94CB1680E008C0FC0182815E
:102F1000882319F010922E0401C081E00F910895CA
:102F2000CF93DF93EC01FB018281882309F41FC159
:102F3000C230FCE5DF0708F41BC1C6319CE5D907A8
:102F400038F09E012B5F3C452930310508F010C157
:102F50000E9410259093840680938306C031ECE58F
:102F6000DE0709F4C3C008F041C0C8308CE5D807BB
:102F700009F49AC0F0F4C430ECE5DE0709F487C028
:102F800068F4C2308CE5D80709F477C0C330DC455B
:102F900009F0E3C080918306826076C0C630ECE51C
:102FA000DE0709F46EC008F07BC08091830688605C
:102FB0006BC0CC308CE5D80709F485C068F4CA3002
:102FC000ECE5DE0709F474C008F079C00E94781EB1
:102FD00080918306806858C0CE308CE5D80709F40C
:102FE00076C008F07FC0809183068BC0CC3FECE5B3
:102FF000DE0709F44FC018F5C3318CE5D80709F492
:103000007DC078F4C131ECE5DE0709F473C0C2314C
:10301000DC4509F0A2C00E94781E809183068F775C
:1030200033C0C5318CE5D80709F472C008F486C0F6
:10303000CB3FDC4509F091C0809184063EC0C115AC
:10304000FDE5DF0709F45FC058F4CE3F9CE5D907E2
:1030500009F444C008F43FC08091840682602DC00A
:10306000C230FDE5DF0709F475C008F45DC0C33068
:10307000DD4509F072C080E06EC0809183068160FA
:1030800003C08091830680618093830666C080912F
:10309000830611C0809184068260809384065DC09F
:1030A000809183068062F0CF809183068064ECCFAC
:1030B0008091830688608460E7CF8160EECF809145
:1030C00083068E7FE1CF809183068D7FDDCF809157
:1030D0008306877FD9CF8091840618C080918406AB
:1030E0008D7FDBCF809183068F7ECECF809183064C
:1030F0008F7DCACF809183068F7BC6CF8091830658
:10310000877F8B7FC1CF809184068D7F8E7FC5CFD7
:103110008091830682FB222720F991E0922790FB81
:1031200082F990FB83F9B0CF80918406982F909517
:1031300091708E7F892B90FB81F9AFCF0E94781E12
:103140008091830687FB222720F991E0922790FB4C
:1031500087F99ACF81E00E94A625809183069091FD
:1031600084060E9421250E94781E80E001C081E033
:10317000DF91CF910895CF93DF9386319C4541F540
:10318000EB010E944424982F8A81209122023091E1
:103190002302882379F09A7A81E009F480E0809311
:1031A0002F04911102C069E201C065E3C9010E94C8
:1031B00041260AC080912F04811102C069E201C03A
:1031C00065E3C9010E944C260E94922480E001C060
:1031D00081E0DF91CF9108951092B9008CE0809347
:1031E000B8000895EF92FF920F931F93CF93DF9350
:1031F000182FEB011092BC0084EA8093BC000E945F
:10320000ED267C018091BC0087FD0EC0CF3F8FEF83
:10321000D807C1F30E94ED268E199F098C179D07D0
:1032200088F38EEF9FEF2EC08091B900887F8830A1
:1032300041F08091B900887F803119F08FEF9FEFC6
:1032400021C01093BB0084E88093BC000E94ED264F
:103250008C018091BC0087FD0CC0CF3F8FEFD80759
:10326000C1F30E94ED26801B910B8C179D0788F3FC
:10327000D8CF8091B900887F883111F08034F1F681
:1032800080E090E0DF91CF911F910F91FF90EF9040
:1032900008950F931F93CF93DF93EB018093BB00AF
:1032A00084E88093BC000E94ED268C018091BC00D4
:1032B00087FD0EC0CF3F8FEFD807C1F30E94ED26E8
:1032C000801B910B8C179D0788F38EEF9FEF0CC02E
:1032D0002091B900287F81E090E0283211F480E04D
:1032E00090E0919581959109DF91CF911F910F9178
:1032F0000895CF92DF92EF92FF920F931F93CF9397
:10330000DF936B018A017901B9010E94F218E6018D
:103310000C0D1D1DC017D10761F424E92093BC00DA
:10332000DF91CF911F910F91FF90EF90DF90CF90A1
:10333000089597FDF2CFB70189910E944919EACF0C
:1033400090933504809334040895E0913404F0910F
:103350003504309721F00190F081E02D099480E050
:103360000895E0913404F0913504309799F020915C
:103370002E02222359F02091830627FF07C0DC018B
:103380002C9111962C93119725E02C930280F381B8
:10339000E02D09940895E0913404F09135043097BC
:1033A00039F022E0DC012C930480F581E02D0994B2
:1033B000089520913204309133042817390771F0B1
:1033C0009093330480933204E0913404F0913504F7
:1033D000309721F00680F781E02D0994089520911F
:1033E0003004309131042817390771F0909331047B
:1033F00080933004E0913404F0913504309721F04B
:103400000084F185E02D099408950E94F9266093C7
:103410004504709346048093470490934804609356
:1034200041047093420480934304909344040895AC
:1034300085B7806885BF85B7806885BF089581E0BE
:1034400008950C941F1A08950C94231A0C94231AAF
:103450000C94261A0C94231A0C942A1A0C94231AEE
:103460000E94181A85EF94E20E947A270E942E1A71
:103470000C942C1A0E94E4260E9473060E94952741
:103480000C94281A6F927F928F929F92AF92BF9264
:10349000CF92DF92EF92FF920F931F93CF93DF9320
:1034A000CDB7DEB72A970FB6F894DEBF0FBECDBFFB
:1034B0000E94241A0E94231A0E94A50681110E94CC
:1034C000051A37E3832E34E0932E00E010E0E02E5F
:1034D000802F0E9441065C01F401619071904F01C0
:1034E0006826792661147104B1F40F5F1F4F05300F
:1034F000110569F78FEF89838A831B820E94ED266D
:103500008160782F9D838C8349815A816B818D8165
:103510000E94071B43C08091E10481FD0E944A067E
:10352000F12CCC24C394D12CC3018C219D21892B57
:1035300071F10E94211AAC20BD208823A1F0FE82E7
:10354000EF8281E0A114B10409F480E088870E9431
:10355000ED268160782F9A8789874E815F81688503
:103560008A850E94071B000F111FF801E95CFB4FC1
:1035700080819181C826D926D182C08241E0AB28C2
:1035800009F440E06F2D8E2D0E941D1107C0F394A9
:10359000CC0CDD1CFFE0FF12C7CFA7CF0E94D111DA
:1035A0000E94E5080E94A519909136048917D1F070
:1035B0000E94A519809336042A960FB6F894DEBFB0
:1035C0000FBECDBFDF91CF911F910F91FF90EF9074
:1035D000DF90CF90BF90AF909F908F907F906F9033
:1035E0000C942A042A960FB6F894DEBF0FBECDBF06
:1035F000DF91CF911F910F91FF90EF90DF90CF90CF
:10360000BF90AF909F908F907F906F900895DF92C2
:10361000EF92FF920F931F93CF93DF93CDB7DEB757
:103620002B970FB6F894DEBF0FBECDBFF42E052F3B
:10363000162FE72ED82E61110E946424FE013196C8
:1036400086E0DF011D928A95E9F77E2D4F2D502FE0
:10365000612F8D2D9E810E9431212B960FB6F894FB
:10366000DEBF0FBECDBFDF91CF911F910F91FF90B5
:10367000EF90DF900895FC01808191810E940524E4
:103680000895CF93882309F450C0C82F8CEF8C0F76
:10369000813AD0F46C2F80912202909123020E94F3
:1036A000C125882349F06C2F80912202909123023A
:1036B0000E944C260E9492246C2F809122029091AD
:1036C00023020E9441260CC080E28C0F883058F4FF
:1036D000C77081E001C0880FCA95EAF70E944724AD
:1036E000CF910C949224EBE5EC0FE33040F4F0E042
:1036F000EF53FC4F808190E0CF910C94D919E8E50D
:10370000EC0FE73150F4F0E0EE0FFF1FED56FC4FE9
:1037100080819181CF910C94EF19CD3E30F08C2FA8
:103720000E94F507CF910C94C708CF910895882384
:1037300089F19CEF980F913A40F4682F8091220212
:10374000909123020E944C260DC090E2980F983071
:1037500058F4877091E001C0990F8A95EAF7892F94
:103760000E944D240C9492249BE5980F933020F4F2
:1037700080E090E00C94D91998E5980F973120F4E7
:1037800080E090E00C94EF198D3E20F00E945008EC
:103790000C94C70808951F93CF93DF93182FEB0164
:1037A0000E94411B209741F08FE99FE00197F1F7BC
:1037B00000C000002197F6CF812FDF91CF911F919C
:1037C0000C94971B893319F060E070E002C060E54B
:1037D00070E00C94CB1B882321F00E9447240C94AA
:1037E00092240895882321F00E944D240C94922461
:1037F0000895CF92DF92EF92FF920F931F93CF9392
:10380000DF937C01062FC72FFC01D2811581129511
:103810001F700E943D24882399F0DD2389F08C2FAE
:10382000807F803421F080E2800F883048F082E091
:103830000E94DC240E943D2491E0D82ED92601C0AC
:10384000D12CCC2EC2948FE0C8228C2D90E0FC01AC
:10385000EF57FF4F0C94D12E8C2F807FCF70882391
:1038600011F0C295C07FDD2399F0CC2309F48DC1FE
:1038700080E2800F883010F0011104C08C2F0E946C
:10388000472403C08C2F0E9457240E9492247DC19C
:10389000802F0E94971BCC2309F49CC180E2800FEB
:1038A000883010F0011104C08C2F0E944D2403C0F9
:1038B0008C2F0E945D240E9492248CC18C2F807FCB
:1038C000CF70803211F0C295C07F002319F0013013
:1038D000C9F022C0DD2371F0112341F0113031F421
:1038E0000E9477248C2B0E947F2474C10E9477242D
:1038F0008C2B1DC0112319F0113009F46BC10E94EB
:10390000882425C0DD2321F0163008F063C10EC0E5
:10391000153008F05FC11BC0DD2361F0112331F0C9
:10392000F701858180FF31C18F7085838C2F0E94C4
:10393000EB1B50C1112359F0093309F037C1FFEFD8
:1039400027EE83E0F15020408040E1F72DC18C2F1D
:103950000E94F21B3FC18C2F86958695837019F0CB
:10396000813061F037C1DD2321F0802F9C2F9370CF
:1039700002C080E090E00E94D91934C1DD2321F01B
:10398000802F9C2F937002C080E090E00E94EF197E
:1039900029C1802FDD2319F00E94F50702C00E9483
:1039A00050080E94C7081EC18C2F837009F045C0C3
:1039B000D11114C1402F429546954770440F440FD2
:1039C000602F6F70862F90E0A0E0B0E0042E04C05E
:1039D000880F991FAA1FBB1F0A94D2F704FF10C0BB
:1039E0000FE010E020E030E004C0000F111F221FA4
:1039F000331F4A95D2F7009510952095309503C056
:103A000000E010E09801C695C695C370BC01CD01D9
:103A1000602B712B822B932BC23049F058F4C130AC
:103A200019F00E948222DAC00E947022D7C00E9440
:103A30009422D4C00E946E22D1C0DD2319F08C2FB5
:103A4000817001C08695882309F4C8C0402F429533
:103A500046954770440F440F602F6F70862F90E09B
:103A6000A0E0B0E0042E04C0880F991FAA1FBB1F5E
:103A70000A94D2F704FF10C00FE010E020E030E01D
:103A800004C0000F111F221F331F4A95D2F7009563
:103A900010952095309503C000E010E09801C69580
:103AA000C695C370BC01CD01602B712B822B932B6B
:103AB000C23049F058F4C13019F00E9447238EC03B
:103AC0000E9435238BC00E94592388C00E94A822DF
:103AD00085C0CF70DD2339F08C2F0E94CE22802F3D
:103AE0000E94EB1B7BC0802F0E94F21B8C2F0E9438
:103AF000EF2274C0023F01F128F4003F41F0013F82
:103B0000A1F03FC0033FF9F0043F39F13AC0DD2393
:103B100041F0153008F05EC08C2F8F710E94142385
:103B200059C0163008F056C0F7CFDD2339F08C2F7E
:103B30008F710E94CE224EC0DD23C9F38C2F8F716E
:103B40000E94EF2247C0DD2329F08C2F8F710E9445
:103B5000B92240C00E94B4223DC0DD2349F0CF719C
:103B60008C2F0E94CE2263E08C2F0E94C72432C08B
:103B700081E00E94DC24123068F182E00E94DC24A3
:103B800029C0DD2331F0112391F2802F0E94411BC7
:103B900021C0112399F2093349F49FEFE7EEF3E0D6
:103BA0009150E040F040E1F700C00000802F0E94FB
:103BB000971B10C04C2F4F70602FC7010E94330419
:103BC0000E94DF210FC04C2F4F70602FC7010E9451
:103BD000360408C088EF8C0D843020F40E94A519AB
:103BE0000E942A04DD20C9F00E94392480FD15C0FE
:103BF000F70112820E9433240E94CE22C7010E9444
:103C00002E1E0E943324DF91CF911F910F91FF90C0
:103C1000EF90DF90CF900C94EF22DF91CF911F9126
:103C20000F91FF90EF90DF90CF9008950F931F9327
:103C3000CF93DF93EC01688179818A810E941024FF
:103C40008C010E946B230E945C22B801CE010E946D
:103C5000F91BDF91CF911F910F910895CF93DF93BF
:103C6000EC01988189812B813C81232B31F08F3F9E
:103C700031F481E09F3F19F403C081E001C080E08E
:103C800080FD19C0CE010E94E00381110CC00E948A
:103C90003D24882381F08A81882369F082E0DF91C6
:103CA000CF910C94DC24CE010E94161ECE01DF9130
:103CB000CF910C94B703DF91CF91089580E090E00D
:103CC0000E94D91980E090E00E94EF190E946424BC
:103CD0000E9474240E9492240E94F8090C94C70840
:103CE00080912202909123020E9457260C945E1E1E
:103CF0000E9454240C94701EE92FE295EF704E2F11
:103D000050E0FA013297EE30F105B0F4EF56FF4F74
:103D10000C94D12E803F91F018F4883E68F40EC0C8
:103D2000843F51F40BC0883E48F0813F29F406C01F
:103D300093FB882780F9089580E0089581E0089535
:103D40000E9405240E947C1E0895CF93DF9300D02B
:103D500000D01F92CDB7DEB70F900F900F900F904D
:103D60000F90DF91CF910895CF93DF9300D000D0D3
:103D700000D0CDB7DEB726960FB6F894DEBF0FBEE3
:103D8000CDBFDF91CF9108951F93CF93DF93C09163
:103D90004A0416E080914B04C81799F0D0E01C9FAC
:103DA000F0011D9FF00D1124E45BFB4F4081518118
:103DB00062817381848195810E94B41E2196C770AF
:103DC000E9CFDF91CF911F91089540917C045091EC
:103DD0007D0460917E0470917F04809180049091B5
:103DE00081040C94B41E0F931F93CF93DF938091A3
:103DF000810482958F7009F05DC080917E048823D4
:103E000009F458C080914A0410914B0460917C04DD
:103E100070917D04C0917F04D091800491E06F3F48
:103E200009F090E0292F06E0811709F443C020979C
:103E300021F07F3F21F030E003C031E001C0322F9C
:103E400090E030FD34C0089FF001099FF00D11246F
:103E5000DF01A45BBB4F11963C911197371327C02C
:103E60003C91361324C012963C91129731111FC019
:103E700013964D915C9114974C1B5D0B483C51057A
:103E8000B0F4809181048F70806180938104EF5A37
:103E9000FB4F80818F70806180838CE794E00E946B
:103EA0002E1EDF91CF911F910F910C94C41E01968D
:103EB0008770BACFDF91CF911F910F9108959F9294
:103EC000AF92BF92CF92DF92EF92FF920F931F9328
:103ED000CF93DF93CDB7DEB761970FB6F894DEBF0F
:103EE0000FBECDBF8C0185E0F801DE011D9601906B
:103EF0000D928A95E1F7F80140815181E28090911D
:103F00007C0460917D0420917F0430918004211510
:103F1000310531F06F3F31F481E09F3F19F403C068
:103F200081E001C080E0F82FF1709F2E80FD46C136
:103F3000F801A380B4808CE7C82E84E0D82EF090DE
:103F40007E04F501E21BF30BFF2009F4DFC0809132
:103F50008104E83CF10508F09BC0282F207F09F080
:103F600052C0561313C0491311C0FE2CE1100EC0ED
:103F70008F708061809381040E94E51EC6010E94BB
:103F80002E1E80918104F801858358C1AB2831F041
:103F90005F3F31F481E04F3F19F403C081E001C07D
:103FA00080E080FD03C081E08E2502C080E090E0CB
:103FB000F82FF170FF2E80FF1CC080914A042091E1
:103FC0004B0436E0821709F417C190E0389FF001E6
:103FD000399FF00D1124E45BFB4F6181561306C03D
:103FE0006081461303C06281E61203C001968770A8
:103FF000E9CFFE2CEE2009F421C18091810481607B
:10400000809381045AC0561306C0491304C0E110BE
:1040100002C0F8019FC04D875E878D859E850E94F6
:10402000A01E882379F1EE2069F120918104822F6E
:1040300082958F7090E0029774F080917C0490914B
:104040007D0498878F831986BB86AA862C87CE012C
:1040500007960E942E1E86E0F801ACE7B4E00190BE
:104060000D928A95E1F70E94F31E0E94E51E0DC095
:10407000561729F14D875E878D859E850E94A01E6B
:1040800081112CC0C8010E942E1EFF24F394D6C0BB
:10409000282F207F69F77A2DB98AA88A6E2D898901
:1040A0000E94A51E8CE794E00E942E1E86E0F60179
:1040B00011928A95E9F70E94E51EF12CBFC04913C1
:1040C000D9CFE110D7CFF8018583C8010E942E1EF9
:1040D00086E0F60111928A95E9F7B0C0EE2091F2E0
:1040E00020918104822F82958F7090E002970CF4CA
:1040F000B2CF80917C0490917D049A8389831B8246
:10410000BD82AC822E83CE010196A3CFE83CF1059F
:1041100008F047C0FE2CEE2009F4B4CF561330C08F
:1041200049132EC02091810420FD21C0822F829549
:104130008F70482F50E041155105C9F0F8012583D3
:104140004F30510541F08F5F982F9295907F822FCD
:104150008F70892B8583C8010E942E1E86E0F8018E
:10416000ACE7B4E001900D928A95E1F742C086E099
:10417000F801ACE7B4E001900D928A95E1F75EC0DA
:104180004D875E878D859E850E94A01E811163CF1D
:1041900080918104816080938104C8010E942E1E59
:1041A0004DC07A2DB98AA88A6E2D89890E94A51ED4
:1041B00086E0F60111928A95E9F71BC0EE2009F41A
:1041C00061CF4D875E878D859E850E94A01EF82E4B
:1041D000882309F457CF86E0F801ACE7B4E00190FA
:1041E0000D928A95E1F78CE794E00E943B1B0E94B8
:1041F000F31E0E94E51E22C04D875E878D859E8539
:104200000E940524292F22952F70223028F49F70B8
:1042100039F0811105C00BC0243028F49F7049F497
:10422000805E883020F0C8010E942E1E9F2CF92C41
:1042300005C0F8019581907F99F7F9CF8F2D619690
:104240000FB6F894DEBF0FBECDBFDF91CF911F91A7
:104250000F91FF90EF90DF90CF90BF90AF909F9025
:1042600008951F93CF93DF93CDB7DEB72C970FB68A
:10427000F894DEBF0FBECDBF4F83588769877A871A
:104280008B879C87CE0107960E945F1F8823D1F001
:104290009F8188852A853B85232B31F08F3F31F420
:1042A00081E09F3F19F403C081E001C080E080FD00
:1042B00047C04F81588569857A858B859C850E948A
:1042C000B41E3EC086E0FE013796DE0111960190D5
:1042D0000D928A95E1F7FF81E8856A857B856115F6
:1042E000710531F0EF3F31F481E0FF3F19F403C075
:1042F00081E001C080E080FD23C020914B0430E0CC
:10430000C90101968770992740914A0450E08417AB
:104310009507F1F1F983EA837D836C8396E0929FA0
:10432000D001939FB00D1124A45BBB4FFE013196C9
:1043300001900D929A95E1F780934B040E94C41E60
:1043400016E080914A0490914B04891771F1189FEF
:10435000C0011124845B9B4F0E945F1F882329F1B9
:10436000E0914A041E9FF0011124E45BFB4F408161
:10437000518162817381848195810E94B41E8091F4
:104380004A0490E001968770992780934A04D9CF18
:104390000E94781E10924B0410924A04ECE7F4E05D
:1043A00086E0DF011D928A95E9F72C960FB6F89406
:1043B000DEBF0FBECDBFDF91CF911F910895EF9269
:1043C000FF920F931F93CF93DF938C01892B09F4F6
:1043D0006CC0F12CEE24E394E8012196F80184915D
:1043E000843740F4843008F051C0813081F082304D
:1043F00019F15BC0853709F444C0A8F19CE7980F18
:10440000903708F052C08F770E94971B41C00E5F13
:104410001F4FFE01849190E2980F983050F48770FE
:10442000FE2D01C0FF0F8A95EAF78F2F0E946724A7
:1044300014C00E94411B2DC00E5F1F4FFE018491CE
:1044400090E2980F983060F48770FE2D01C0FF0F46
:104450008A95EAF78F2F0E946D240E94922419C03A
:104460000E94971B16C00E5F1F4FFE01C491CC2304
:1044700081F08FE99FE00197F1F700C00000C15083
:10448000F6CF0E5F1F4FFE01F49003C00E94411B48
:104490008E018F2D882309F49FCFEFE9FFE031973C
:1044A000F1F700C000008150F5CFDF91CF911F914F
:1044B0000F91FF90EF900895089508950C945D2258
:1044C0000C945E220E9460226093B8047093B90439
:1044D0008093BA049093BB040C945E1E0C946222E9
:1044E0000F931F930091B8041091B9042091BA045E
:1044F0003091BB04602B712B822B932B1F910F915A
:104500000C9462220F931F930091B8041091B90488
:104510002091BA043091BB0460237123822393233A
:104520001F910F910C9462220F931F930091B80476
:104530001091B9042091BA043091BB04602771270F
:10454000822793271F910F910C9462220C945D2275
:104550000E94A6226093B4047093B5048093B604BD
:104560009093B7040C945E1E60E070E0CB010C9455
:10457000A8220F931F9341E050E060E070E08A01B1
:104580009B0104C0000F111F221F331F8A95D2F711
:10459000C901B8011F910F910C94A8220F931F938A
:1045A00041E050E060E070E004C0440F551F661F1A
:1045B000771F8A95D2F78091B4049091B504A091A9
:1045C000B604B091B7048A019B01082B192B2A2B42
:1045D0003B2BC901B8011F910F910C94A8220F9396
:1045E0001F9341E050E060E070E004C0440F551FAD
:1045F000661F771F8A95D2F7409550956095709504
:104600008091B4049091B504A091B604B091B70420
:104610008A019B01082319232A233B23C901B801DE
:104620001F910F910C94A8220F931F9341E050E02B
:1046300060E070E004C0440F551F661F771F8A9525
:10464000D2F78091B4049091B504A091B604B091D2
:10465000B7048A019B01082719272A273B27C9018C
:10466000B8011F910F910C94A8220F931F930091F2
:10467000B4041091B5042091B6043091B704602BB6
:10468000712B822B932B1F910F910C94A8220F93C7
:104690001F930091B4041091B5042091B604309199
:1046A000B70460237123822393231F910F910C94ED
:1046B000A8220F931F930091B4041091B504209188
:1046C000B6043091B70460277127822793271F9182
:1046D0000F910C94A82208952FE0929F800D112431
:1046E000E82FE695E695E695877051E001C0550FF5
:1046F0008A95EAF785E0E89FF0011124EE57FB4F19
:1047000020E030E070E04081CB01022E02C096959F
:1047100087950A94E2F78170819584278523842701
:1047200081932F5F3F4F2530310569F708952FE0C2
:10473000929F800D1124682F669566956695982F37
:10474000977085E0689FB001112440E050E080E060
:10475000FB01E40FF51FEE57FB4F208130E0092EDF
:1047600002C0369527950A94E2F721703327042E6C
:1047700001C0220F0A94EAF7822B4F5F5F4F45304A
:10478000510531F70895BF92CF92DF92EF92FF92D9
:104790000F931F93CF93DF938C01C090B404D090FC
:1047A000B504E090B604F090B7048091B8049091FD
:1047B000B904A091BA04B091BB04C82AD92AEA2A44
:1047C000FB2ACFE1D0E0D701C6010C2E04C0B6957C
:1047D000A795979587950A94D2F780FD04C02197F5
:1047E00090F7B12C07C0BC2EB8018C2F0E94520448
:1047F0000197A9F38B2DDF91CF911F910F91FF901E
:10480000EF90DF90CF90BF900895CF93DF93EC01AE
:104810000E94C323BE010E945204DF91CF910895EC
:104820001F93CF93DF93EB0190914904992321F0DB
:10483000CB010E94052413C0882349F0CB010E94BC
:10484000C323182F682FCE010E946C2304C0CB0114
:104850000E949723182FBE01812F0E945204DF91DE
:10486000CF911F9108958091BC048595859585957C
:1048700008958091BC04877008959091BC0497704E
:1048800081E009F480E008958091E004089590911A
:10489000E004892B8093E004089580959091E004D2
:1048A00089238093E00408951092E0040895909184
:1048B000DF04892B8093DF04089580959091DF04B5
:1048C00089238093DF0408951092DF040895909166
:1048D000DE04892B8093DE04089580959091DE0498
:1048E00089238093DE0408951092DE040895809158
:1048F000BD04089508950C947A240C947B2490911F
:10490000BD04981721F08093BD040C947D24089574
:104910008091BD04882329F01092BD0480E00C949E
:104920007D240895E0912202F09123028091E00419
:104930008083E0912202F091230290818091DF0434
:10494000892B8083E0912202F09123029081809153
:10495000DE04892B80838091BD04882381F0E0915F
:104960002202F09123029081892B80838091220280
:10497000909123020E94AB2581110E94882480918E
:104980002202909123020C94B1190C947A2498E09D
:10499000899F90011124262B2093BC040E94CE22D3
:1049A0008091BC048595859585950C94C5241092BD
:1049B000BC0480E00C94C5242091BC048095822323
:1049C0008093BC04982F977079F430E0482F082E1C
:1049D000000C550B2417350739F08595859585957D
:1049E0000E94EF220C94D724089580E008956FEF81
:1049F0007FEF80E090E00C944E2F80E090E00E94EA
:104A00001A2F21E08B3E9E4F09F020E0822F08955F
:104A100082E090E00C94122F83E090E00C94122F2F
:104A2000CF9384E090E00E94122FC82F81E290E0A3
:104A30000E94122F2C2F30E0A901582BCA01CF91D0
:104A40000895CF93C92F682F84E090E00E94302F03
:104A50006C2F81E290E0CF910C94302FAB01BC0120
:104A60008FE090E00C94422FAB01BC0183E190E019
:104A70000C94422F60E070E0CB010C94342560E090
:104A800070E0CB010E942E250C943A256BEE7EEF50
:104A900080E090E00E944E2F60E082E090E00E9473
:104AA000302F60E083E090E00E94302F1092B80435
:104AB0001092B9041092BA041092BB0460E084E032
:104AC00090E00E94302F60E081E290E00E94302F61
:104AD00060E085E090E00E94302F60E086E090E0AA
:104AE0000E94302F6FEF87E090E00E94302F40E06F
:104AF00050E0BA0188E090E00E94422F60E08DE033
:104B000090E00E94302F40E050E0BA0188E190E050
:104B10000E94422F60E087E190E00E94302F40E049
:104B200050E0BA018CE190E00E94422F60E080E208
:104B300090E00E94302F40E050E0BA0188E190E020
:104B40000E94422F0C943F250C944625682F8EE03E
:104B500090E00C94302FFC01329680912E02882335
:104B600031F08091830687FF02C09EE101C096E08C
:104B700080E0915028F021912223D9F38F5FF9CF63
:104B80000895662351F120912E022223E9F020910D
:104B9000830627FF19C0462F4695469546954E3108
:104BA000E0F4677021E030E002C0220F331F6A9505
:104BB000E2F7FC01E40FF11D828190E02823392304
:104BC00081E0232B69F409C0FC01329608962191FB
:104BD000621729F0E817F907D1F780E0089581E01E
:104BE00008959C01FC0132969FEF80E041914617A9
:104BF00089F09F3F19F4411101C0982F8F5F8630D3
:104C0000A9F79F3F39F0F901E90FF11D97FDFA95DA
:104C10006283089508959C012A5F3F4FFC01428101
:104C2000461301C01282019682179307B9F70895BF
:104C3000262F2695269526952E3168F4FC01E20F45
:104C4000F11D677021E030E001C0220F6A95EAF79C
:104C50008281282B22830895262F26952695269536
:104C60002E3170F4FC01E20FF11D677021E030E09D
:104C700001C0220F6A95EAF72095828128232283BA
:104C8000089520912E02222329F02091830627FDEA
:104C90000C9418260C94F12520912E02222329F041
:104CA0002091830627FD0C942C260C940B26209132
:104CB0002E02FC013296222331F08091830687FF79
:104CC00002C08EE101C086E0DF011D928A95E9F7FE
:104CD000089508950C9469260C946926CF930E9438
:104CE0006C260E94A5060E946A26C0E08C2F0E94B6
:104CF0004106892B29F4CF5FC530C1F780E001C0A0
:104D000081E0CF9108950C946926809189068430C2
:104D100049F10E945C0380E00E942A041092E204A0
:104D200020E488E190E00FB6F894A89580936000A5
:104D30000FBE2093600083B7817F846083BF83B7F9
:104D4000816083BF7894889583B78E7F83BF0FB6C9
:104D5000F894A8958091600088618093600010921B
:104D600060000FBE08950E94781E0E94A5190E943F
:104D70002A040C9461031F920F920FB60F92112414
:104D80008F939F93AF93BF938091E204811113C0DF
:104D900080917F0690918006A0918106B091820655
:104DA0004196A11DB11D80937F0690938006A0932C
:104DB0008106B0938206BF91AF919F918F910F9022
:104DC0000FBE0F901F90189582E084BD93E095BDB3
:104DD0009AEF97BD80936E0008952FB7F894809155
:104DE0007F0690918006A0918106B09182062FBF28
:104DF00008952FB7F89460917F0670918006809196
:104E00008106909182062FBF08959C014FB7F894B8
:104E100080917F0690918006A0918106B0918206D4
:104E20004FBF821B930B0895CF92DF92EF92FF92B8
:104E30002FB7F894C0907F06D0908006E09081064E
:104E4000F09082062FBFA7019601261B370B480B57
:104E5000590BCA01B901FF90EF90DF90CF900895F0
:104E600078941F920F920FB60F9211248F939F93F5
:104E7000AF93BF9380917F0690918006A0918106A9
:104E8000B09182060196A11DB11D80937F0690937B
:104E90008006A0938106B0938206BF91AF919F9147
:104EA0008F910F900FBE0F901F90189581E0809307
:104EB000E00080E28093D8001092C9008FE19EE468
:104EC0000197F1F700C0000087E090EBDC018093D0
:104ED000920690939306A0939406B09395069CE057
:104EE00088E10FB6F894A895809360000FBE909368
:104EF0006000FFCF9093C5038093C40308950C9482
:104F0000F7240E94A5068FEB9DE50197F1F700C0FD
:104F100000000E94A50680E00E94410680FF04C0B8
:104F20000E947F270C94562708950E94FD2481112A
:104F300002C00E94A4250E9408258093E1040E94DB
:104F4000102590938406809383060E940C25682F79
:104F500070E080E090E00E946E226091B404709155
:104F6000B5048091B6049091B7040C94A622809168
:104F700003050895CF93DF9300D01F92CDB7DEB71E
:104F800090918906943019F589837B836A8382E046
:104F90008093E9008FEF9091E800815095FD06C065
:104FA00095ED9A95F1F700008111F5CF8091E80019
:104FB00085FF0DC040E050E063E070E0CE01019657
:104FC0000E94EC298091E8008E778093E8000F9092
:104FD0000F900F90DF91CF910895BC0184E00C9465
:104FE000BA27BC0183E00C94BA2722E02093E900A1
:104FF0002FEF3091E800215035FD06C035ED3A9590
:10500000F1F700002111F5CF2091E80025FF0BC03A
:1050100040E050E066E070E00E94EC298091E800FA
:105020008E778093E8000895CF93DF9320912E022E
:10503000222339F02091830627FF03C060E222E09B
:1050400002C068E021E02093E9002FEF3091E800F2
:10505000215035FD06C035ED3A95F1F700002111DC
:10506000F5CF2091E80025FF1DC0EC0180912E02B4
:10507000811105C040E050E068E070E003C070E0DE
:1050800040E050E0CE010E94EC298091E8008E774C
:105090008093E80080E2FE01A3EEB4E001900D925F
:1050A0008A95E1F7DF91CF9108958091880681116B
:1050B00009C00E947D2B0E94DA2B8091E20084605F
:1050C0008093E20008951092880608950895089547
:1050D000089542E061EC81E00E94F62A42E261EC30
:1050E00082E00C94F62A80918B06833009F460C02C
:1050F00030F4813071F0823009F499C008958A301B
:1051000009F485C08B3009F46BC0893009F0A7C061
:1051100020C080918A06813A09F0A1C08091E80000
:10512000877F8093E80080918E0690918F06892B6F
:1051300021F460E283EE94E003C060E080E090E060
:1051400070E00E94372A8091E8008B778093E80016
:10515000089580918A06813209F081C080918E067F
:1051600090918F06029708F07AC08091E800877FBF
:105170008093E8008091E80082FD05C08091890657
:105180008111F8CF6CC02091F3008091F20090E083
:10519000922B029729F48091F1008B7F813021F4CA
:1051A0008091F100809303058091E8008B7753C0D4
:1051B00080918A06813A09F052C080918E069091C2
:1051C0008F06892B09F04BC08091E800877F809380
:1051D000E8008091E80080FFFCCF80912E0236C06D
:1051E00080918A068132D9F580918E0690918F0642
:1051F000892BA9F58091E800877F8093E8000E94C1
:105200002B2B80918C0680932E020C94781E80911B
:105210008A06813221F58091E800877F8093E8003B
:105220000E942B2B80918D06809304050895809118
:105230008A06813AA1F48091E800877F8093E80094
:105240008091E80080FFFCCF809104058093F100FD
:105250008091E8008E778093E8000C942B2B0895C2
:1052600084B7877F84BF0FB6F894A89580916000BB
:10527000886180936000109260000FBE90E080E82B
:105280000FB6F89480936100909361000FBE0E9466
:10529000301A0E947D2B0E94DA2B8091E2008460FC
:1052A0008093E20078940E946F2E0E943A1A84E262
:1052B00092E00E94A019809189068530A9F480911E
:1052C0008906853079F40E94852680918706882397
:1052D000B1F30E946E26882391F30E94D6290E9482
:1052E000781EEDCF0E94B3260E94421A0E94241A13
:1052F0000E94231AE0CF0C947D29292F33272330D5
:105300003105C9F060F42130310581F022303105DA
:1053100009F044C08BE390E022EE34E043C0213238
:105320003105E1F02232310549F138C082E190E0E7
:105330002DE135E037C099278130910549F028F0FB
:10534000029761F5EAEAF4E005C0EEEDF4E002C090
:10535000ECECF4E0849190E09F0124C061157105AC
:1053600041F061307105D1F489E090E02DE035E045
:1053700019C089E090E024EF34E014C06115710594
:1053800041F06130710551F486EB90E02FE235E099
:1053900009C080E490E025EE35E004C080E090E0B4
:1053A00020E030E0FA0131832083089580E189BD57
:1053B00082E189BD09B400FEFDCF8091D8008F7DC8
:1053C0008093D8008091E00082608093E00080911B
:1053D000E00081FDFCCF0895CF92DF92EF92FF9223
:1053E0000F931F93CF93DF93EC018B017A010E94FF
:1053F0004A2B811133C0E114F10439F0F7018081A7
:105400009181081B190BC80FD91FC12CD12C011574
:10541000110519F18091E80085FD16C08091E80022
:105420008E778093E800E114F10449F0F701808160
:105430009181C80ED91ED182C08285E00FC00E9422
:105440004A2B882321F30AC089918093F1000150EF
:105450001109FFEFCF1ADF0ADACF80E0DF91CF9199
:105460001F910F91FF90EF90DF90CF9008952091C2
:105470009006309191062617370748F0611571059F
:1054800039F42091E8002E772093E80001C0B9019B
:10549000FC0120E06115710579F18091890688236E
:1054A000F1F18530F1F18091E80083FD3CC08091FD
:1054B000E80082FD2EC08091E80080FFEBCF2091B4
:1054C000F3008091F20090E0922B6115710551F08C
:1054D0008830910538F421912093F10061507109D1
:1054E0000196F3CF21E0089709F020E08091E800D1
:1054F0008E778093E800CECF2111CFCF0AC0809164
:105500008906882361F0853061F08091E80083FD91
:105510000AC08091E80082FFF2CF80E0089582E027
:10552000089583E0089581E00895209190063091D8
:1055300091062617370748F06115710539F4209157
:10554000E8002E772093E80001C0B901FC0120E0BB
:105550006115710591F180918906882309F440C095
:10556000853009F43FC08091E80083FD3DC0809103
:10557000E80082FD2FC08091E80080FFE9CF2091F4
:10558000F3008091F20090E0922B6115710559F0C3
:105590008830910540F424912093F10031966150B8
:1055A00071090196F2CF21E0089709F020E080917F
:1055B000E8008E778093E800CBCF2111CCCF0AC0D2
:1055C00080918906882361F0853061F08091E80040
:1055D00083FD0AC08091E80082FFF2CF80E0089549
:1055E00082E0089583E0089581E00895982F973030
:1055F00068F59093E900981739F07091EC002091CC
:10560000ED005091F00003C0242F762F50E021FDD3
:1056100002C09F5FECCF3091EB003E7F3093EB00F8
:105620003091ED003D7F3093ED003091EB00316023
:105630003093EB007093EC002093ED005093F0005A
:105640002091EE0027FDE5CF80E008958F708093D4
:10565000E90081E0089580918A0687FF11C080915A
:10566000E80082FD05C0809189068111F8CF11C044
:105670008091E8008B770BC080918906882349F0E0
:105680008091E80080FFF8CF8091E8008E778093CA
:10569000E80008952091E4003091E50095E64091FE
:1056A000EC00842F817040FF23C08091E80080FDD2
:1056B0001DC080918906882399F0853099F08091EA
:1056C000EB0085FD11C04091E4005091E5002417E6
:1056D000350729F3915011F09A01E1CF84E0089544
:1056E00082E0089583E0089581E0089580E00895C0
:1056F0004091E80042FFDDCF08950E94EB2B0E940D
:10570000F32BE0EEF0E0808181608083E8EDF0E053
:1057100080818F77808319BCA7EDB0E08C918E7F5C
:105720008C9380818F7E80831092880608950F93DA
:105730001F93CF93DF930E94EB2B0E94F32BC8EDB6
:10574000D0E088818F77888388818068888388818A
:105750008F7D888319BC109289061092850610925D
:1057600087061092860600EE10E0F80180818B7F9C
:10577000808388818160888342E060E080E00E94CD
:10578000F62AE1EEF0E080818E7F8083E2EEF0E0A9
:10579000808181608083808188608083F80180813E
:1057A0008E7F8083888180618883DF91CF911F9174
:1057B0000F910895E8EDF0E080818F7E8083E7ED22
:1057C000F0E080818160808384E082BF81E080930B
:1057D00088060C94972BE8EDF0E080818E7F808323
:1057E0001092E20008951092DA001092E1000895FC
:1057F0001F920F920FB60F9211242F933F934F9346
:105800005F936F937F938F939F93AF93BF93EF9328
:10581000FF938091E10082FF0BC08091E20082FF44
:1058200007C08091E1008B7F8093E1000E946E2E83
:105830008091DA0080FF1FC08091D80080FF1BC0DC
:105840008091DA008E7F8093DA008091D90080FF0A
:105850000DC080E189BD82E189BD09B400FEFDCFA4
:1058600081E0809389060E94552805C019BC1092DA
:1058700089060E9463288091E10080FF19C0809111
:10588000E20080FF15C08091E2008E7F8093E200ED
:105890008091E20080618093E2008091D800806274
:1058A0008093D80019BC85E0809389060E94672800
:1058B0008091E10084FF30C08091E20084FF2CC021
:1058C00080E189BD82E189BD09B400FEFDCF8091F0
:1058D000D8008F7D8093D8008091E1008F7E8093E7
:1058E000E1008091E2008F7E8093E2008091E200EF
:1058F00081608093E20080918506882311F084E026
:1059000007C08091E30087FD02C081E001C083E011
:10591000809389060E9468288091E10083FF29C056
:105920008091E20083FF25C08091E100877F809312
:10593000E10082E080938906109285068091E10063
:105940008E7F8093E1008091E2008E7F8093E20061
:105950008091E20080618093E20042E060E080E0BC
:105960000E94F62A8091F00088608093F0000E94E7
:105970006628FF91EF91BF91AF919F918F917F9199
:105980006F915F914F913F912F910F900FBE0F90AC
:105990001F9018951F920F920FB60F9211242F93FC
:1059A0003F934F935F936F937F938F939F93AF93A7
:1059B000BF93CF93DF93EF93FF93C091E900CF7034
:1059C0008091EC00D82FD17080FDD0E81092E900D2
:1059D0008091F000877F8093F00078940E940E2DD4
:1059E0001092E9008091F00088608093F000CD2B48
:1059F000CF70C093E900FF91EF91DF91CF91BF91FC
:105A0000AF919F918F917F916F915F914F913F9156
:105A10002F910F900FBE0F901F9018951F93CF934B
:105A2000DF93CDB7DEB7AA970FB6F894DEBF0FBEEF
:105A3000CDBFEAE8F6E08091F100819326E0E239FB
:105A4000F207C9F70E9473288091E80083FF2EC1F6
:105A500080918A0690918B06492F50E04A3051057B
:105A600008F024C1FA01E156FF4F0C94D12E803882
:105A700021F0823809F01AC108C080918606909101
:105A80008706992389F082600FC080918E068F70FF
:105A9000873008F00BC18093E9008091EB0085FB13
:105AA000882780F91092E9009091E800977F909301
:105AB000E8008093F1001092F100D1C0282F2D7FD3
:105AC00009F0F4C0882319F0823061F0EFC08091B2
:105AD0008C06813009F0EAC0933009F080E08093B1
