:100000000C9415030C945C030C945C030C945C033B
:100010000C945C030C945C030C945C030C945C03E4
:100020000C945C030C945C030C942B2B0C94FD2B14
:100030000C9419230C945C030C945C030C945C03E7
:100040000C945C030C945C030C945C030C945C03B4
:100050000C945C030C94B9230C945C030C945C0327
:100060000C945C030C945C030C945C030C945C0394
:100070000C945C030C945C030C945C030C945C0384
:100080000C945C030C945C030C945C030C945C0374
:100090000C945C030C945C030C945C030C945C0364
:1000A0000C945C030C945C030C945C035B0F770F63
:1000B0007C0F810F860F8B0F900F950F9A0F9F0F5C
:1000C000A40FA90FAE0FB30FB80FBD0FC20FC70F0C
:1000D000CC0F0F13121317131E13231328132D13F2
:1000E000321337133C13411346134C134C134C1368
:1000F0004C134C134C134C134C135D185D188F1894
:100100008F18DC18FA18521A521A3C19D119E21930
:10011000E219421A521A521A4B1AD81AD81AEA1A63
:10012000EA1AE11AEA1AEA1AEA1AD81AD81AE61AE0
:10013000EA1AEA1AE61A6A2C912C892D912C892D3B
:10014000DD2C002D892D572D662D165C1E001F00FD
:100150002000210022002300240025002600270083
:100160002D002E002A004B002B0014001A0008005E
:10017000150017001C0018000C00120013002F00BF
:10018000300031004E000151040016000700090044
:100190000A000B000D000E000F00330034000000B9
:1001A00028004C00E1001D001B000600190005009E
:1001B00011001000360037003800E5000000520042
:1001C0003500E000E300E200000000002C00000029
:1001D0000000E6000000E4005000000051004F0065
:1001E00035003A003B003C003D003E003F0040002F
:1001F000410042004300440045004C00B200390079
:10020000F400F000F500F900010001000100010018
:1002100052004600470048000100B3000100F20010
:10022000F100F300FA000100C75CC85C5000510007
:100230004F000100000001004900E100C25CC35C06
:10024000C95CCA5CCB5CCC5CC55CC65C01000100CF
:1002500001000000A900A800010001000100000049
:100260000000010000000000010000001250AC007E
:100270000000AA00AB00165C3A003B003C003D00C9
:100280003E003F0040004100420043004400450062
:100290002A004B002B0014001A000800150017005C
:1002A0001C0018000C00120013002F003000310059
:1002B0004E00035104001600070009000A000B005D
:1002C0000D000E000F0033003400000028004C0029
:1002D000E1001D001B0006001900050011001000C0
:1002E000360037003800E500000052003500E0001D
:1002F000E300E200000000002C0000000000E60027
:10030000000001005000000051004F0035001E00A9
:100310001F002000210022002300240025002600C9
:1003200027002D002E004C00B2003900F400F00030
:10033000F500F90001000100010001005200460033
:10034000470048000100B3000100F200F100F30093
:10035000FA000100C75CC85C500051004F0001006A
:10036000000001004900E100C25CC35CC95CCA5CDA
:10037000CB5CCC5CC55CC65C0100010001000000E8
:10038000A900A80001000100010000000000010018
:1003900000000000010000001050AC000000AA00A6
:1003A000AB00000101010101010101010202020291
:1003B000020202020203030303030303030404040F
:1003C00004040404050505050506060606060707D8
:1003D00007070708080808090909090A0A0A0B0B90
:1003E0000B0C0C0C0D0D0D0E0E0E0F0F0F1010112F
:1003F00011111212131314141515161617171818B5
:1004000019191A1A1B1B1C1D1D1E1E1F202021221C
:1004100022232424252626272829292A2B2C2D2D62
:100420002E2F30313232333435363738393A3B3C7F
:100430003D3E3F404142434445464748494A4C4D72
:100440004E4F50515354555658595A5B5D5E5F613B
:100450006264656668696B6C6D6F707273757778CE
:100460007A7B7D7E8082838587888A8C8E8F91932C
:100470009596989A9C9EA0A2A3A5A7A9ABADAFB153
:10048000B3B5B7BABCBEC0C2C4C6C9CBCDCFD1D438
:10049000D6D8DBDDDFE2E4E7E9EBEEF0F3F5F8FADE
:1004A000FDFF04033000000020036B0062006400C5
:1004B000360037006D006B0069006900720067004C
:1004C0006200200076003200000010034B00420062
:1004D0004400660061006E0073000000040309041C
:1004E00009023B00020100A0FA0904000001030117
:1004F00001000921110100012240000705810308C4
:10050000000A090401000103000000092111010093
:100510000122BC000705820320000A12011001001D
:10052000000008424B2512020001020301050109E7
:1005300002A10185020901A100050919012905157A
:10054000002501950575018102950175038101055D
:1005500001093009311581257F9502750881060949
:10056000381581257F950175088106050C0A38022A
:100570001581257F950175088106C0C00501098098
:10058000A101850319012AB700150126B7009501BD
:1005900075108100C0050C0901A101850419012A0B
:1005A000A002150126A002950175108100C0050169
:1005B0000906A1018505050719E029E715002501B0
:1005C0009508750181020507190029EF150025011D
:1005D00095F0750181020508190129059505750138
:1005E0009102950175039101C005010906A101055C
:1005F0000719E029E7150025019508750181029585
:1006000001750881010507190029FF150026FF0063
:1006100095067508810005081901290595057501DC
:100620009102950175039101C00011241FBECFEF07
:10063000DAE0DEBFCDBF04B603FE27C0809190068E
:1006400090919106A0919206B09193068730904BBD
:10065000A740B04BD1F410929006109291061092E0
:1006600092061092930614BE84B7877F84BF0FB69C
:10067000F894A89580916000886180936000109242
:1006800060000FBEE0E0F8E3099513E0A0E0B1E000
:10069000E2E1FDE502C005900D92A43CB107D9F757
:1006A00026E0A4ECB3E001C01D92A039B207E1F747
:1006B0000E945A280C94872E0C9400000C94620619
:1006C0000C9460060C947C0381E00E9444100C940E
:1006D000DF2280E00E9444100C94C5220E941C1668
:1006E00081FF07C02FEF4FEF6FEF8EE190E00C948A
:1006F000830A089581E0089581E008951F93CF93C0
:10070000DF9300D000D01F92CDB7DEB749835A8364
:100710006B832091320489819A81211112C0662352
:1007200049F00E942820182F682F89819A810E9401
:10073000D11F03C00E94FC1F182F69817A81812F6D
:1007400004C00E94282069817A810F900F900F9039
:100750000F900F90DF91CF911F910C944704FC01F3
:10076000408151816281738184810C947E030E9457
:10077000B6068FEB9DE50197F1F700C000000E94DF
:10078000B60680E00E94510680FF04C00E945A21F4
:100790000C94DF2308950E94B7030E946021811109
:1007A00002C00E9400220E9416100C945E030E9458
:1007B0009E0E0C94600308950C94DB0381E0089571
:1007C0000C94DE03CF93C82F0E94DC038C2F0E9471
:1007D000E003CF91089508950E94C61A0E94EB038A
:1007E0002FEF84E39CE0215080409040E1F700C06F
:1007F00000000C94DF230F931F93CF93DF93EC0142
:100800000E94AF038C01BE010E94000E8823A9F153
:10081000BE01C8010E946203882379F1BE01C801AC
:100820000E94C613882349F1BE01C8010E94071423
:10083000882319F1BE01C8010E9432158823E9F00E
:10084000BE01C8010E94F8128823B9F08A8188236A
:1008500069F001158CE5180731F00E3D1C4531F4A7
:100860000E9400220AC00E94EC0307C0CE01DF9163
:10087000CF911F910F910C947A0380E0DF91CF917B
:100880001F910F91089580E090E0089508952BE462
:10089000829FC0011124FC012FE0729FE00DF11D29
:1008A0001124E60FF11DEE0FFF1FE65BFE4F859151
:1008B00094910895880F991FFC01EE55FC4F859186
:1008C00094910895CF93DF930E9447040E947A0584
:1008D000EC018115904508F041C0C11580E4D807AE
:1008E00008F0D1C0C83ED10510F5C03ED10508F0D2
:1008F000FDC0C83AD10578F4C53AD10508F0A2C0C8
:10090000C130D10509F4F2C008F4EEC0C430D105FD
:1009100008F0ECC0E9C0CF3BD10508F49BC0C03C57
:10092000D10508F4E1C0CE01805C91099EC0C115DB
:1009300090E2D90758F4C11521E0D20708F0D6C0DB
:10094000C03FD10508F4D0C0D065D0C0C11580E348
:10095000D80708F08EC0CE019F7087C0C11595E5FD
:10096000D90708F043C0C11524E5D20708F0A2C09A
:10097000C11582E5D80708F5C11591E5D90708F03A
:1009800085C0CE0174E0969587957A95E1F78370DE
:100990009C2F937021E030E002C0220F331F9A9504
:1009A000E2F73C68382BCF70C695C69580E2C89FA9
:1009B000E0011124C22BD32B99C09E012370332751
:1009C0008C2F86958695C115D34508F064C0C1E08B
:1009D000D0E002C0CC0FDD1F2A95E2F720E2829F13
:1009E000C0011124C82BD92BDC6880C0C11529E5B2
:1009F000D207A0F4C11588E5D80708F060C0C1157A
:100A000096E5D90708F070C08C2F0E940E068F71F2
:100A1000C82FD0E0DC2FCC27D06268C0C1152AE5F2
:100A2000D20708F451C0CE0190568115904208F0CB
:100A30005BC08D2F8F710E940E06DD27D0628F71F3
:100A4000D82B54C0C55AD0E0C459DC4FC881D0E07F
:100A5000D0644CC0C85AD0E0CC0FDD1FC25CDC4F64
:100A60000990D881C02DD46441C00E945A04EC0181
:100A70003DC0CE019927D3FF03C0EC01D86C36C02E
:100A8000EC01D06C33C0DF70D06A30C0DC2FCC27D3
:100A9000C16FD06A2BC0C1E0D0E002C0CC0FDD1F17
:100AA0002A95E2F720E2829FC0011124C82BD92B9E
:100AB000DA681CC0DC2FCC27C46FD06A17C0DC2FCB
:100AC000CC27C06FD06A12C08C2F8F700E940E0688
:100AD00094E0D695C7959A95E1F7CF70D0E0DC2FDA
:100AE000CC27D069C82B02C0C0E0D0E0CE01DF9196
:100AF000CF9108958238910569F1B0F48133910561
:100B000009F46DC048F48932910509F463C08A3252
:100B1000910509F469C008958533910509F455C01C
:100B200089339105B9F00895833E910569F138F450
:100B3000803E9105B1F0823E910509F10895863E0F
:100B40009105A9F1873E9105B9F1843E910509F01F
:100B500064C023C02091810620FD4FC021FD4DC0FF
:100B600008958091810680FD44C08091820680FFB7
:100B700044C08091810684FD42C083EE4DC08091C7
:100B8000810682FF38C0F5CF8091810682FD33C097
:100B90008091820680FD31C0ECCF8091820681FF7A
:100BA00032C08091810684FD2AC087EE35C08091D5
:100BB000810683FF26C0F5CF8091810683FD21C089
:100BC0008091820681FD1FC0ECCF8091810685FD5A
:100BD0001CC01DC08091810685FD19C016C0809182
:100BE000810686FD16C017C08091810686FD13C060
:100BF00010C089E311C082EE0FC080EE0DC080E00E
:100C00000BC086EE09C084EE07C089E205C085E30B
:100C100003C08AE201C081E390E0089590918106CB
:100C200092FF0DC0282F2871283019F4877F846027
:100C300006C0282F2471243011F48B7F886093FF25
:100C40000DC0282F2871283119F4877E846106C0D1
:100C5000282F2471243111F48B7E88612091820623
:100C600020FF0DC0382F3871383019F4877F81602C
:100C700006C0382F3171313011F48E7F886021FF2A
:100C80000DC0282F2871283119F4877E816106C094
:100C9000282F2171213111F48E7E886194FD877E89
:100CA0000895E82FF0E0EE0FFF1FE95FFA4F808113
:100CB00091810895089580EA8A95F1F7089508953D
:100CC0000C945F060C945F06CF93DF93AEE7B3E01E
:100CD00043E853E061E070E08D91E82FE295EF701A
:100CE000F0E021A18F70EB0102C0CC0FDD1F8A95CF
:100CF000E2F7CE019C2F9095922391A392A1892B8C
:100D000082A34A175B0741F7AFE6B3E04EE753E033
:100D100061E070E08D91E82FE295EF70F0E021A1A5
:100D20008F70EB0102C0CC0FDD1F8A95E2F7CE0178
:100D30009C2F9095922391A392A1892B82A34A176D
:100D40005B0741F7EDEFF4E0A7E0B5E087E095E061
:100D5000119211921D921D928E179F07C9F785E07F
:100D60000E945307DF91CF910C94CB032F923F92B7
:100D70004F925F926F927F928F929F92AF92BF92AB
:100D8000CF92DF92EF92FF920F931F93CF93DF9357
:100D90008EE7C82E83E0D82E0DEF14E097E0492EA1
:100DA00095E0592E312C88248394912C5801D80138
:100DB0006D907C9011971D921C92F60181916F01AC
:100DC000C82FC295CF70D0E099A18F70740101C077
:100DD000EE0C8A95EAF7892F8E2989A38AA12E2CF9
:100DE000209482218AA30E945B06EFE6F3E020E0D4
:100DF00030E06191A62FA295AF70B0E090968C91F3
:100E0000D8014D915C9190E06F7002C095958795E7
:100E10006A95E2F780FD08C0C401022E02C0880F67
:100E2000991F0A94E2F702C080E090E0482B592B0A
:100E3000D8014D935C932F5F3F4F2F303105C9F69A
:100E400089A1282229A28AA1E82AEAA20E5F1F4FBF
:100E500081E0F501208131812615370509F480E014
:100E6000382A4016510609F0A1CF232D45E067E04E
:100E700075E08DEF94E00E9454070E94D703832D04
:100E8000DF91CF911F910F91FF90EF90DF90CF9066
:100E9000BF90AF909F908F907F906F905F904F909A
:100EA0003F902F9008950895FF920F931F93CF9333
:100EB000DF93F82E092F162FD72FC42F222349F0A6
:100EC00081E08093C6030E944B239093C5038093D7
:100ED000C4038091C6038823D9F08091C403909104
:100EE000C5030E946323049798F0EF2DF02FA12FE4
:100EF000BD2F80E090E04C2F50E08417950734F42C
:100F0000219131912D933D930196F7CF1092C60315
:100F1000DF91CF911F910F91FF900895EF92FF9273
:100F20000F931F93CF93DF93F62E472FE82FF0E018
:100F3000711106C0EE55FC4F6491762F862F72C05A
:100F4000272F30E0EE55FC4FE4910E2F10E056E0D5
:100F5000659FC0011124CFEFD0E0BE010E94BD2DDE
:100F60005BEA5603C001579F900D11248F0D911D10
:100F70008F0D911D982F990F890F7E01E21AF30AA8
:100F8000E09ED001E19EB00DF09EB00D1124489F6F
:100F9000A0011124452F55277E01E41AF50AE09E91
:100FA000A001E19E500DF09E500D11247E01E81A23
:100FB000F108E29EC001E39E900DF29E900D112477
:100FC000892F9927C81BD90BC09FC001C19F900DC5
:100FD000D09F900D11246230710591F048F4611595
:100FE0007105E1F061307105A9F48B2F752F19C0DF
:100FF0006430710561F038F06630710579F00AC02F
:10100000892F7B2F0EC08E2F7B2FE52F0AC08E2FAE
:10101000792F02C0852F7E2FEB2F03C08B2F7E2FC1
:10102000E92F6E2FDF91CF911F910F91FF90EF90DD
:10103000089520E030E0869F212D969F200D311DE0
:101040001124C9010895BC018230910508F4089566
:10105000613E8EE1780748F49B0195E0369527952F
:101060009A95E1F748E0420F01C04FEF91E0242F3D
:1010700030E0290F311D35952795229FF001239FE0
:10108000F00DF00D11246E177F0718F44FEF420F8B
:1010900004C02F3F39F091E0920F491740F78FEFCE
:1010A000890F08958FEF0895482F982F46FD90954A
:1010B000E92FEF739F7046FD9F5FE295EF70EE0F93
:1010C000F0E0ED57FC4F2181299F802D212D112427
:1010D00082958F702295207F822B3081982F930FDD
:1010E000892F47FD819580580895E42FF0E0EE0F99
:1010F000FF1FE55BFE4F408134EE439F412D1124DD
:10110000E82FF0E050E0445E5F4FDA01A21BB10926
:101110009D01B7FF03C031952195310993E0220F5E
:10112000331F9A95E1F7AF01421B530B9A0157FF0A
:1011300002C020E030E0582F259F212D1124822F5E
:101140000895E42FF0E0EE0FFF1FE55BFE4F608196
:10115000621B0895E42FF0E0EE0FFF1FE45BFE4FEB
:101160006081621B0895A22F50E0FA01EE0FFF1F6D
:10117000E45BFE4F9081905297FD9195440F551F6F
:10118000FA01E55BFE4F3081232F30E02A1B310945
:10119000290F311D97FD3A95620F0895EF920F9335
:1011A0001F9393E0099F80011124159507956E2DDB
:1011B000600F1F910F91EF9008950F93CF93DF93DE
:1011C000D72FC82F47FD4195E8E3F0E0CF01841BFE
:1011D000910947FD9395889FB001899F700D700D0F
:1011E0001124229FC001239F900D900D1124860F82
:1011F000971F0E942308682F660F860F682F600FC5
:101200007D2F8C2FDF91CF910F9108950F931F9316
:10121000522F10E0F801EE0FFF1FE45BFE4FE0815C
:10122000F0E0B0979F015203D001539FB00D1124FD
:10123000000F111FF801E55BFE4F008110E0005721
:10124000110940039001419F300D11242A0F3B1FCB
:1012500037FF02C021583F4F220F232F221F330B8D
:10126000620F1F910F9108950F931F93522F10E05B
:10127000F801EE0FFF1FE45BFE4FE081F0E0B09756
:10128000EE0FFF1F9F015203D001539FB00D112499
:10129000000F111FF801E55BFE4F008110E00057C1
:1012A0001109000F111F40039001419F300D1124BF
:1012B0002A0F3B1F37FF02C021583F4F220F232F19
:1012C000221F330B620F1F910F9108950F931F93ED
:1012D00010E0F801EE0FFF1FE55BFE4F9081905785
:1012E00097FD9195000F111FF801E45BFE4FE0811F
:1012F000F0E0B097DF01AA0FBB1F8D010E0F1F1F7B
:101300002003D001219FB00D1124E8E3F0E0E91B98
:10131000F10997FDF3959F01220F331F89010E0FED
:101320001F1F40039001419F300D11242A0F3B1FC6
:1013300037FF02C021583F4F220F232F221F330BAC
:10134000620F1F910F91089522E8241B08F420E0FA
:10135000620F0895FC019B01009721F477FF2BC0D9
:1013600080E80895AC0197FF04C044275527481B27
:10137000590BB901640F751F37FD0CC0241B350BC9
:10138000C901A5E0880F991FAA95E1F70E94D12D08
:1013900080E20CC0CB0165E0880F991F6A95E1F7E8
:1013A000BA01621B730B0E94D12D80E6861BF7FFEA
:1013B00003C08195089580E00895FF920F931F93D5
:1013C000CF93DF93F62ED72F182FC901C12FC01B43
:1013D000BA010E94AA09982F990F890FC81B2C2FB8
:1013E000219F212D1124822F6F2D7D2FDF91CF91F1
:1013F0001F910F91FF900895EF920F931F93CF933A
:10140000DF93D62FC72F182FC9010E19010FBA016C
:101410000E94AA09081B202F219F212D1124822F11
:101420006D2F7C2FDF91CF911F910F91EF90089539
:101430000F93CF93DF93D72FC82FC901BA010E9412
:10144000AA09682F600F7D2F8C2FDF91CF910F910C
:101450000895EF920F93CF93DF93D72FC82FC90131
:101460000E19BA010E94AA09602F681B7D2F8C2FCC
:10147000DF91CF910F91EF90089545E050E06CE13E
:1014800070E081E195E00C94352E45E050E06CE190
:1014900070E081E195E00C94532EE1E1F5E081E20A
:1014A000808380912F0290913002A091310281833C
:1014B0009283A3838FE784830C94450A80E0089588
:1014C0000F931F93CF93DF93C82FD62F8A010E94CB
:1014D0005E0A9FE0C99FF0011124E050FF4FED0F1D
:1014E000F11D90819F3F29F0F801E80FF11D9083D5
:1014F0008F5FDF91CF911F910F910895E09191033C
:10150000F09192030994E0918D03F0918E03099478
:101510004F925F926F927F928F929F92AF92BF9203
:10152000CF92DF92EF920F931F93CF93DF932C0113
:101530003B01FC01C081CC0FCC0FD4E0DC0FD434D4
:1015400008F0D3E460911505669580913F05909170
:1015500040050E941908182FCD1708F044C08C2EA2
:10156000912CF401EF52FE4F9081F2018181892389
:10157000C1F1F401EE0FFF1FE55BFE4FC080D12CDF
:10158000F0E7CF1AD108F401EE0FFF1FE45BFE4F26
:10159000A080B12C80E2A81AB108CC9C9001CD9C0F
:1015A000300D300D1124AA9CC001AB9C900D900D04
:1015B0001124820F931F0E942308082F60911205A7
:1015C0007091130580911405E12E9501A601F30198
:1015D00009950E948E07462F282F672FC4010E946D
:1015E000830ACF5FB9CF81E0D33408F080E0DF9188
:1015F000CF911F910F91EF90DF90CF90BF90AF9060
:101600009F908F907F906F905F904F9008956CEFB8
:1016100079E00C94880A6EEC78E00C94880A69E210
:101620007AE00C94880AAF92BF92CF92DF92EF9249
:10163000FF920F931F93CF93DF936C015B01FC012B
:10164000C081CC0FCC0FD4E0DC0FD43408F0D3E44D
:1016500060911505669580913F05909140050E9427
:101660001908182FCD1778F5EC2EF12CF701EF5251
:10167000FE4F9081F6018181892319F1F701EE0F68
:10168000FF1FE45BFE4F208130E020523109F7015B
:10169000EE0FFF1FE55BFE4F408150E040575109C0
:1016A000609112057091130580911405012FF501C9
:1016B00009950E948E07462F282F672FC7010E9489
:1016C000830ACF5FCFCF81E0D33408F080E0DF9191
:1016D000CF911F910F91FF90EF90DF90CF90BF902F
:1016E000AF9008956DED79E00C94130B6DED78E0FB
:1016F0000C94130B68E17AE00C94130BBF92CF9219
:10170000DF92EF92FF920F931F93CF93DF938C01A1
:101710007B01FC01C081CC0FCC0FD4E0DC0FD434B2
:1017200008F0D3E4609115056695669580913F05B4
:10173000909140050E941908B82ECD17F0F4CC2ED8
:10174000D12CF601EF52FE4F9081F801818189235F
:1017500091F06091120570911305809114052B2D65
:101760004C2FF70109950E948E07462F282F672FCF
:10177000C6010E94830ACF5FE0CF81E0D33408F036
:1017800080E0DF91CF911F910F91FF90EF90DF905C
:10179000CF90BF90089565E778E00C947E0B61EAE6
:1017A00078E00C947E0B6AEA78E00C947E0B63EB95
:1017B00078E00C947E0B7F928F929F92AF92BF92B3
:1017C000CF92DF92EF92FF920F931F93CF93DF930D
:1017D0006C015B01FC01C081CC0FCC0FD4E0DC0FAD
:1017E000D43408F0D3E46091150566956695809130
:1017F0003F05909140050E941908182F80E4810F41
:101800000E94540890E8F92EF80E812F0E94540887
:1018100020E8722E780ECD1700F58C2E912CF40155
:10182000EF52FE4F9081F60181818923A1F06091F2
:1018300012057091130580911405E12E0C2F272DB0
:101840004F2DF50109950E948E07462F282F672FEF
:10185000C4010E94830ACF5FDECF81E0D33408F059
:1018600080E0DF91CF911F910F91FF90EF90DF907B
:10187000CF90BF90AF909F908F907F90089566E03B
:1018800079E00C94DB0B64E379E00C94DB0B66E607
:1018900079E00C94DB0BAF92BF92CF92DF92EF9284
:1018A000FF920F931F93CF93DF937C015B01FC01A9
:1018B000C081CC0FCC0FD4E0DC0FD43408F0D3E4DB
:1018C0002091150530E040E050E06FEF7FEF80E0C1
:1018D00090E00E94E52D8901CD17E8F5CC2ED12CA2
:1018E000F601EF52FE4F9081F7018181892389F142
:1018F00090911605915097FD15C0292F092E000CC7
:10190000330BF901EA5EFA4F8189C813F3CF220F36
:10191000331FF901EA5EFA4F218D328D201731070E
:1019200048F701C0980160911505C9010E94190886
:10193000AC01609112057091130580911405F501B9
:1019400009950E948E07462F282F672FC6010E94F7
:10195000830ACF5FC1CF81E0D33408F080E0DF910C
:10196000CF911F910F91FF90EF90DF90CF90BF909C
:10197000AF90089564EA79E00C944B0CDF92EF92FB
:10198000FF920F931F93CF93DF938C01DC01CC91D7
:10199000CC0FCC0FD4E0DC0FD43408F0D3E460914A
:1019A000120570911305809114050E948E07F62E82
:1019B000E72ED82ECD1798F4EC2FF0E0DF01AF52D0
:1019C000BE4F8C91D80111969C91982331F02D2D0A
:1019D0004F2D6E2DCF010E94830ACF5FEBCF81E0A8
:1019E000D33408F080E0DF91CF911F910F91FF90E9
:1019F000EF90DF900895AF92BF92CF92DF92EF9277
:101A0000FF920F931F93CF93DF938C01FC01C08152
:101A1000CC0FCC0FD4E0DC0FD43408F0D3E4E0904A
:101A20001305F0901405D09012056D2D7E2D8F2D8D
:101A30000E948E07C62EB72EA82E609115056D0D3B
:101A40007E2D8F2D0E948E07F62EE72ED82ECD17D5
:101A5000B8F48C2F90E0FC01EF52FE4F3081F8017A
:101A60002181232359F030FF04C02D2D4F2D6E2DE1
:101A700003C02A2D4C2D6B2D0E94830ACF5FE7CF28
:101A800081E0D33408F080E0DF91CF911F910F9176
:101A9000FF90EF90DF90CF90BF90AF900895BF92EE
:101AA000CF92DF92EF92FF920F931F93CF93DF932A
:101AB0007C01FC01C081CC0FCC0FD4E0DC0FD4340E
:101AC00008F0D3E4C0901305B090140520911505DB
:101AD00030E4D32E3D2D329F312D1124D32ECD173E
:101AE00038F50C2F10E0F801EF52FE4F9081F7010E
:101AF00081818923D9F0F801EE0FFF1FE55BFE4FCE
:101B00006081D69EB001112495E0759567959A95F0
:101B1000E1F780911205680F7C2D8B2D0E948E07B6
:101B2000462F282F672FC8010E94830ACF5FD7CF87
:101B300081E0D33408F080E0DF91CF911F910F91C5
:101B4000FF90EF90DF90CF90BF900895DF92EF92DB
:101B5000FF920F931F93CF93DF938C01DC01CC9105
:101B6000CC0FCC0FD4E0DC0FD43408F0D3E4E090F9
:101B70001205F0901305D090140560911505669537
:101B80006695669580913F05909140050E941908E1
:101B90000E945408805887FD8195880F282F3D2D7D
:101BA000239F212D1124822FB7010E948E07F62E2C
:101BB000E72ED82ECD1798F4EC2FF0E0DF01AF52CE
:101BC000BE4F8C91D80111969C91982331F02D2D08
:101BD0004F2D6E2DCF010E94830ACF5FEBCF81E0A6
:101BE000D33408F080E0DF91CF911F910F91FF90E7
:101BF000EF90DF900895E0918F03F09190030994A6
:101C0000CF92DF92EF92FF920F931F93CF93DF93C8
:101C1000CDB7DEB728970FB6F894DEBF0FBECDBFA5
:101C2000FB018281882389F0AE014F5F5F4F6081A5
:101C300081810E94600AF82E10924305109244059B
:101C4000109245051092460501C0F12CE090C703A3
:101C50000F2D10E0C8018E0D911D099764F188E0E9
:101C600090E06C01C01AD10AB80168537C4FA601FC
:101C700088EC93E00E942C2EB80160537C4FA601A3
:101C800080ED93E00E942C2EA601440F551FB80151
:101C9000660F771F60527C4F80EE93E00E942C2EDF
:101CA000B80168527C4FA60188ED93E00E942C2E6B
:101CB000EA94E092C7031091C703DE01119640E059
:101CC000842F810FF41609F190E05D91252F30E00B
:101CD000BC0169537C4FF901EE0FFF1FE55BFE4F1E
:101CE0000081FB010183220F331FF901E45BFE4FEA
:101CF0002081FB012187518B880F991FFC01E9533B
:101D0000FC4F128E118E4F5FDBCF8093C70381E0B3
:101D100028960FB6F894DEBF0FBECDBFDF91CF91EE
:101D20001F910F91FF90EF90DF90CF90089508954D
:101D30000C94970E0E94980E0C946E03CF92DF9233
:101D4000EF92FF920F931F93CF93DF936091F00375
:101D50007091F1038091F2039091F3030E948D231F
:101D60006B017C01EB010E945723AB01BC01409346
:101D7000F0035093F1036093F2037093F3038091A7
:101D8000430590914405A0914505B09146058F3FCC
:101D90002FEF9207A207B20729F1EE24FF24970143
:101DA00086010095109520953095081719072A0788
:101DB0003B0760F48FEF9FEFDC0180934305909326
:101DC0004405A0934505B09346050CC0C80ED91E26
:101DD000EA1EFB1EC0924305D0924405E0924505E1
:101DE000F0924605A091C703E7ECF3E02A2F30E01C
:101DF0007E01E094F094A31771F0818D928DE81626
:101E0000F90610F4215004C08C0F9D1F928F818F12
:101E10003F5F3296F0CF2093C703F090F403F110A8
:101E200008C0C09111058C2F837019F0C695C69516
:101E300001C0C0E0809114028130E9F038F08230B6
:101E400009F4C1C0833009F4CBC0DBC01092150285
:101E500040933F05509340056093410570934205C0
:101E600089E2E7ECF3E0A6E1B5E001900D928A95F6
:101E7000E1F781E0B2C080911802C8130DC0209133
:101E80001105237030E04091190250E081E02417E1
:101E9000350719F480E001C081E08170809317025A
:101EA0004C2F50E04331510508F07BC0FA01EA5A4B
:101EB000FF4F0C94042E882309F473C0D0911502AF
:101EC000DD0FDD0F14E01D0F143408F013E4D117FB
:101ED00048F420E040E060E08D2F90E00E94830A0B
:101EE000DF5FF5CF81E0133408F45CC05AC085E1B0
:101EF00092E00E94BE0C56C085E192E00E94FB0C6D
:101F000051C085E192E00E944F0D4CC085E192E006
:101F10000E94A60D47C085E192E00E94CB0B42C013
:101F200085E192E00E94720B3DC085E192E00E9443
:101F3000070B38C085E192E00E94CF0B33C085E1EA
:101F400092E00E94D30B2EC085E192E00E94D70B55
:101F500029C085E192E00E940B0B24C085E192E04C
:101F60000E94760B1FC085E192E00E947A0B1AC096
:101F700085E192E00E940F0B15C085E192E00E947E
:101F80003F0C10C085E192E00E94430C0BC085E13C
:101F900092E00E94470C06C085E192E00E94BA0CD4
:101FA00001C080E0909115029F5F9093150281110E
:101FB00028C082E08093140280911702811121C011
:101FC000CC2351F01EC0C09318028091110583707C
:101FD000809319020E947E0A83E08093140211C04C
:101FE00060913F05709140058091410590914205B7
:101FF0000E948D236A3171058105910510F01092C0
:102000001402F1100AC0DF91CF911F910F91FF9040
:10201000EF90DF90CF900C949A0EDF91CF911F91AB
:102020000F91FF90EF90DF90CF900895E0918B0398
:10203000F0918C03099510921605EFE2F5E08FEF11
:102040009FEF8193919325E0EF33F207D1F7109240
:10205000C703E0EEF3E08FEF9FEF8193919323E0CE
:10206000E03FF207D1F70E946021811104C00E9475
:1020700000220E944D0A0E943D0A809111058C7F2A
:1020800011F40C944D0A0895CF93C82F882329F09A
:1020900040E060E080E00E94FB0DC093F403CF912C
:1020A0000895E1E1F5E0908181E089278083109235
:1020B00014020C94450A90911105892F86958695F6
:1020C0008F5F8F739370833120F4880F880F892B73
:1020D00002C0892F846080931105109214020C9421
:1020E000450A90911105892F86958695815C8F739D
:1020F0009370882321F0880F880F892B02C0892FC5
:10210000886480931105109214020C94450AE1E151
:10211000F5E08181885F81830C94450AE1E1F5E077
:102120008181885081830C94450AE1E1F5E02281A8
:1021300030E1230F08F42FEF22830C94450AE1E1EC
:10214000F5E0228130E1231B08F420E022830C9487
:10215000450A2091140530E1230F08F42FEF213AAE
:1021600018F42093140503C080EA809314050C949E
:10217000450AE1E1F5E0238130E1231B08F420E08A
:1021800023830C94450AE1E1F5E0248130E1230F3B
:1021900008F42FEF24830C94450AE1E1F5E0248153
:1021A00030E1231B08F420E024830C94450AE1E18C
:1021B000F5E0880F880F90819370892B80831092AF
:1021C00014020C94450A60E084E70E94B21261E0B8
:1021D00087E70C94B212CF930E94631584E70E94A4
:1021E000381187E70E943811C0E021E041E061E04A
:1021F0008C2F0E94CE11CF5FC334B9F760E084E723
:102200000E94CA1261E087E7CF910C94CA12E7E6F8
:10221000F6E06083418324E630E042E050E0BF0115
:10222000880F0C94F0150F931F93CF93DF93082F13
:10223000000FEB0114E210936706E8E6F6E0DE011A
:102240008D91819386E0E837F807D1F724E630E0F6
:1022500041E150E067E676E0802F0E94F015105FC4
:102260006096143B41F7DF91CF911F910F91089534
:10227000CF93DF93C82F4BE06DEF0E94071140E032
:102280006AE08C2F0E9407118FE39CE90197F1F718
:1022900000C0000040E060E08C2F0E94071140E089
:1022A00061E08C2F0E94071140E066E08C2F0E94B5
:1022B000071140E06DEF8C2F0E940711D0E040E045
:1022C0006D2F8C2F0E940711DF5FD231C1F740E0E4
:1022D0006D2F8C2F0E940711DF5FD432C1F740E0D1
:1022E0006D2F8C2F0E940711DF5FD43BC1F74BE0AD
:1022F0006DEF8C2F0E94071141E06AE08C2F0E9445
:10230000071140E06DEF8C2FDF91CF910C940711F6
:102310008334910540F5880F991F880F991FFC01A0
:10232000EE5CFD4F52813381808183707181A82FD3
:10233000B0E0E0E98E9FC0011124895B9A4FFC0157
:10234000E70FF11DB4976083FC01E50FF11DB49711
:102350004083830F911DFC01B4972083FD01E55E4E
:10236000FB4F81E080830895FF920F931F93CF93DB
:10237000DF93182F062FF42EC0E0D0E02F2D402F32
:10238000612FCE010E9488112196C334D105B1F787
:10239000DF91CF911F910F91FF9008957F928F92BF
:1023A0009F92AF92BF92CF92DF92EF92FF920F93E4
:1023B0001F93CF93DF93362F54E0859FC0011124E4
:1023C000FC01EE5CFD4F60816370762E618170E0F0
:1023D000CB0184978C0197FF02C0095F1F4FA3E0D8
:1023E00015950795AA95E1F7628170E07B0154E2AB
:1023F000E51AF108E701F7FC279673E0D595C79534
:102400007A95E1F7638170E04B0154E2851A9108F7
:10241000F40197FC379653E0F595E7955A95E1F767
:1024200068E0A62EB12CB5010E94D12D6C01C70128
:10243000B5010E94D12D7C01C401B5010E94D12DAE
:102440001127672D70E0DD24332399F032E1369FA8
:10245000D001379FB00D1124A950BC4FA00FB11F60
:1024600001E010E001C0000FCA94EAF73C91032B91
:1024700013C032E1369FD001379FB00D1124A9500F
:10248000BC4FA00FB11F01E010E001C0000FCA94C3
:10249000EAF700953C9103230C93DD27FF2432E1FA
:1024A000442391F0369FA001379F500D11244950CD
:1024B0005C4FC40FD51F41E050E001C0440FEA94C7
:1024C000EAF73881432B12C0369FA001379F500D89
:1024D000112449505C4FC40FD51F41E050E001C0AA
:1024E000440FEA94EAF74095388143234883AF01CB
:1024F0005527992792E1969FF001979FF00D11249F
:10250000E950FC4FE40FF51F222361F021E030E099
:10251000A90102C0440F551F8A95E2F7CA019081B4
:10252000892B0CC021E030E0A90102C0440F551FE7
:102530008A95E2F7CA018095908189238083FB0107
:10254000EB50FC4F81E08083DF91CF911F910F9181
:10255000FF90EF90DF90CF90BF90AF909F908F90C3
:102560007F900895CF93DF93262F30E0E901C55E79
:10257000DB4F9881992351F090E9929FB001939F8E
:10258000700D1124695B7A4F0E9413111882DF913C
:10259000CF910895FF920F931F93CF93DF93E62F70
:1025A000F0E0EB50FC4F90819923B1F0F82E82E1DE
:1025B000689FE001112400E010E0F801EC0FFD1F1E
:1025C000E950FC4F4081602F8F2D0E9407110F5F53
:1025D0001F4F0231110589F7DF91CF911F910F91A4
:1025E000FF900895882311F0FA0101C0FB010994BE
:1025F0000F931F93CF93FB01C281CC2309F44AC0F0
:102600008C010E94A9208272F801E25CFC45E43151
:10261000F10508F042C0E759FF4F0C94042E0E94C8
:1026200051103AC041E750E16BE570E104C04BE561
:1026300050E161E770E10E94F2122EC04EE850E1D5
:1026400067E870E1F8CF47E850E16EE870E1F3CF5A
:102650004FE950E165E970E1EECF45E950E16FE9FE
:1026600070E1E9CF49EB50E169EA70E1E4CF49EA72
:1026700050E169EB70E1DFCF4DEC50E163EC70E1CC
:10268000DACF43EC50E16DEC70E1D5CF81E00E94F0
:10269000D71002C0C1E001C0C0E08C2FCF911F91C4
:1026A0000F9108950F931F93CF93DF93C62FD42FCD
:1026B000122FFC0182818823C9F060931F040E94BD
:1026C0004B2390931E0480931D0480E28C0F88306E
:1026D00008F057C0C77081E001C0880FCA95EAF7BB
:1026E000DF91CF911F910F910C941D1880911F04C1
:1026F000681330C080911D0490911E040E946323D2
:10270000883C910538F500E20D0FCD17B9F080E255
:102710008C0F883040F4C77081E001C0880FCA95E3
:10272000EAF70E942418083028F581E09D2F977061
:1027300001C0880F9A95EAF70E941D18812F0E9408
:102740000A180830F0F4D77081E001C0880FDA95DC
:10275000EAF70AC080E28C0F883098F4C77081E0F5
:1027600001C0880FCA95EAF7DF91CF911F910F91B1
:102770000C942418812FDF91CF911F910F910C940D
:102780000A18DF91CF911F910F9108959C01CB0101
:10279000233F4CE53407F9F078F4283DFCE53F078A
:1027A000B9F0293D4CE5340711F1273D3C4531F5A1
:1027B00026E241EE61EE1EC0253FFCE53F0799F0A1
:1027C00070F0263F3C45D1F427E245EE66EE12C09C
:1027D00027E245EE0EC026E241EE60EE0BC027E296
:1027E00045EE64EE07C026E241EE62EE03C028E249
:1027F00041E065EE0E94521380E00895FC01828161
:10280000882319F010921F04089581E00895CF9352
:10281000DF93EC01FB018281882309F41FC1C230E0
:10282000FCE5DF0708F41BC1C6319CE5D90738F089
:102830009E012A5F3C452930310508F010C10E94F5
:1028400073219093820680938106C031ECE5DE0708
:1028500009F4C3C008F041C0C8308CE5D80709F4BA
:102860009AC0F0F4C430ECE5DE0709F487C068F4E0
:10287000C2308CE5D80709F477C0C330DC4509F0D5
:10288000E3C080918106826076C0C630ECE5DE0749
:1028900009F46EC008F07BC08091810688606BC02F
:1028A000CC308CE5D80709F485C068F4CA30ECE573
:1028B000DE0709F474C008F079C00E94C61A80913E
:1028C0008106806858C0CE308CE5D80709F476C000
:1028D00008F07FC0809181068BC0CB3FECE5DE071E
:1028E00009F44FC018F5C3318CE5D80709F47DC051
:1028F00078F4C131ECE5DE0709F473C0C231DC4580
:1029000009F0A2C00E94C61A809181068F7733C059
:10291000C5318CE5D80709F472C008F486C0CA3FF7
:10292000DC4509F091C0809182063EC0CF3FFCE5B6
:10293000DF0709F45FC058F4CD3F9CE5D90709F4DF
:1029400044C008F43FC08091820682602DC0C1302F
:10295000FDE5DF0709F475C008F45DC0C230DD4550
:1029600009F072C080E06EC080918106816003C072
:102970008091810680618093810666C08091810686
:1029800011C0809182068260809382065DC0809132
:1029900081068062F0CF809181068064ECCF8091C7
:1029A000810688608460E7CF8160EECF80918106E8
:1029B0008E7FE1CF809181068D7FDDCF8091810672
:1029C000877FD9CF8091820618C0809182068D7F43
:1029D000DBCF809181068F7ECECF809181068F7D67
:1029E000CACF809181068F7BC6CF80918106877F79
:1029F0008B7FC1CF809182068D7F8E7FC5CF8091E6
:102A0000810682FB222720F991E0922790FB82F930
:102A100090FB83F9B0CF80918206982F90959170AA
:102A20008E7F892B90FB81F9AFCF0E94C61A8091CF
:102A3000810687FB222720F991E0922790FB87F9F6
:102A40009ACF81E00E9402228091810690918206B5
:102A50000E9484210E94C61A80E001C081E0DF91BB
:102A6000CF910895CF93DF9386319C4541F5EB01DB
:102A70000E94A920982F8A8120911A0230911B026E
:102A8000882379F09A7A81E009F480E08093200429
:102A9000911102C069E201C065E3C9010E949D2253
:102AA0000AC080912004811102C069E201C065E37F
:102AB000C9010E94A8220E94F72080E001C081E0A5
:102AC000DF91CF9108951092B9008CE08093B80007
:102AD0000895EF92FF920F931F93CF93DF93182FD8
:102AE000EB011092BC0084EA8093BC000E944B234F
:102AF0007C018091BC0087FD0EC0CF3F8FEFD807CF
:102B0000C1F30E944B238E199F098C179D0788F3F0
:102B10008EEF9FEF2EC08091B900887F883041F002
:102B20008091B900887F803119F08FEF9FEF21C02D
:102B30001093BB0084E88093BC000E944B238C015F
:102B40008091BC0087FD0CC0CF3F8FEFD807C1F349
:102B50000E944B23801B910B8C179D0788F3D8CFC5
:102B60008091B900887F883111F08034F1F680E0DF
:102B700090E0DF91CF911F910F91FF90EF9008951A
:102B80000F931F93CF93DF93EB018093BB0084E8F7
:102B90008093BC000E944B238C018091BC0087FD78
:102BA0000EC0CF3F8FEFD807C1F30E944B23801B8D
:102BB000910B8C179D0788F38EEF9FEF0CC020912F
:102BC000B900287F81E090E0283211F480E090E0A5
:102BD000919581959109DF91CF911F910F91089562
:102BE000CF92DF92EF92FF920F931F93CF93DF93D9
:102BF0006B018A017901B9010E946915E6010C0D8A
:102C00001D1DC017D10761F424E92093BC00DF919A
:102C1000CF911F910F91FF90EF90DF90CF9008958B
:102C200097FDF2CFB70189910E94C015EACF90932A
:102C30002604809325040895E0912504F09126044C
:102C4000309721F00190F081E02D099480E0089503
:102C5000E0912504F0912604309799F020912E02FE
:102C6000222359F02091810627FF07C0DC012C9117
:102C700011962C93119725E02C930280F381E02D7F
:102C800009940895E0912504F0912604309739F0D5
:102C900022E0DC012C930480F581E02D0994089555
:102CA00020912304309124042817390771F0909360
:102CB000240480932304E0912504F09126043097A6
:102CC00021F00680F781E02D0994089520912104D8
:102CD000309122042817390771F0909322048093D1
:102CE0002104E0912504F0912604309721F000841E
:102CF000F185E02D0994089585B7806885BF85B773
:102D0000806885BF089508950C9483160C948416EA
:102D10000C9483160C9483160E947C160E948816CD
:102D20000C94861681E008950E9442230E94640656
:102D30000E9403240C948A167F928F929F92AF92E6
:102D4000BF92CF92DF92EF92FF920F931F93CF9398
:102D5000DF93CDB7DEB72A970FB6F894DEBF0FBE6C
:102D6000CDBF0E94B6060E949216811111C08FEF4E
:102D700089838A831B820E944B238160782F9D83E5
:102D80008C8349815A816B818D810E944C174FC081
:102D900048E2A42E44E0B42E00E010E0702E802F14
:102DA0000E9451066C01F501819091905F01882687
:102DB00099268114910431F40F5F1F4F05301105DE
:102DC00069F7D5CF8091CA0481FD0E945A0680E040
:102DD000EE24E394F12C94012E213F21232B09F1C1
:102DE0008E837F82CE20DF2081E0CD2809F480E031
:102DF00088870E944B238160782F9A8789874E812C
:102E00005F8168858A850E944C17000F111FF801A9
:102E1000E85DFB4F80819181E826F926F182E0820E
:102E200006C08F5FEE0CFF1C8F30A9F6C5CF0E9445
:102E300095250E941C16909127048917C9F00E94BD
:102E40001C16809327042A960FB6F894DEBF0FBE97
:102E5000CDBFDF91CF911F910F91FF90EF90DF9049
:102E6000CF90BF90AF909F908F907F900C94E20393
:102E70002A960FB6F894DEBF0FBECDBFDF91CF917B
:102E80001F910F91FF90EF90DF90CF90BF90AF9088
:102E90009F908F907F900895CF93DF93CDB7DEB74B
:102EA0002B970FB6F894DEBF0FBECDBF4F83588768
:102EB00069877A878B87DE01119686E0FD01119282
:102EC0008A95E9F785E0FE01379601900D928A9583
:102ED000E1F749815A816B817C818D819E810E94BD
:102EE000961D2B960FB6F894DEBF0FBECDBFDF91B7
:102EF000CF910895FC01808191810E946A200895FC
:102F0000CF93882309F450C0C82F8CEF8C0F813ADF
:102F1000D0F46C2F80911A0290911B020E941D2206
:102F2000882349F06C2F80911A0290911B020E9415
:102F3000A8220E94F7206C2F80911A0290911B0208
:102F40000E949D220CC080E28C0F883058F4C7701C
:102F500081E001C0880FCA95EAF70E94AC20CF91AA
:102F60000C94F720EBE5EC0FE33040F4F0E0EF5386
:102F7000FC4F808190E0CF910C945016E8E5EC0F67
:102F8000E73150F4F0E0EE0FFF1FED56FC4F80816B
:102F90009181CF910C946616C03F30F08C2F0E9427
:102FA0009D24CF910C948A25CF910895882389F18F
:102FB0009CEF980F913A40F4682F80911A029091FB
:102FC0001B020E94A8220DC090E2980F983058F47E
:102FD000877091E001C0990F8A95EAF7892F0E94C6
:102FE000B2200C94F7209BE5980F933020F480E0FA
:102FF00090E00C94501698E5980F973120F480E0FB
:1030000090E00C946616803F20F00E9405250C94F9
:103010008A250895CF93C82F0E948017C93349F499
:103020002FEF87EE93E0215080409040E1F700C001
:1030300000008C2FCF910C94D617882321F00E948A
:10304000AC200C94F7200895882321F00E94B22030
:103050000C94F7200895CF92DF92EF92FF920F9396
:103060001F93CF93DF937C01062FC72FFC0115819F
:1030700012951F70D281D1110E94C9200E94A220F6
:10308000882379F0DD2369F080E2800F883048F0F2
:1030900082E00E9441210E94A22091E0D82ED926F0
:1030A00001C0D12CCC2EC2948FE0C8228C2D90E090
:1030B000FC01E358FF4F0C94042E8C2F807FCF70BF
:1030C000882311F0C295C07FDD2399F0CC2309F449
:1030D000C4C180E2800F883010F0011104C08C2F31
:1030E0000E94AC2003C08C2F0E94BC200E94F720BD
:1030F000B4C1802F0E94D617CC2309F4D3C180E23B
:10310000800F883010F0011104C08C2F0E94B22073
:1031100003C08C2F0E94C2200E94F720C3C18C2FB5
:10312000807FCF70803211F0C295C07F002319F0EC
:103130000130C9F022C0DD2371F0112341F01130BC
:1031400031F40E94DC208C2B0E94E420ABC10E9451
:10315000DC208C2B1DC0112319F0113009F4A2C101
:103160000E94ED2025C0DD2321F0163008F09AC121
:103170000EC0153008F096C11BC0DD2361F011238D
:1031800031F0F701858180FF68C18F7085838C2FB6
:103190000E941D1887C1112359F0093309F06EC12F
:1031A000FFEF27EE83E0F15020408040E1F764C15B
:1031B0008C2F0E94241876C18C2F8695869583705B
:1031C00019F0813061F06EC1DD2321F0802F9C2F3A
:1031D000937002C080E090E00E9450166BC1DD2326
:1031E00021F0802F9C2F937002C080E090E00E941D
:1031F000661660C1DD23F9F0053F51F0063F71F01E
:10320000043FA9F480917B0690917C0681600BC0FD
:1032100080917B0690917C06826005C080917B0640
:1032200090917C06846090937C0680937B06802F2F
:103230000E949D241EC0053F51F0063F71F0043FDF
:10324000A9F480917B0690917C068E7F0BC08091C3
:103250007B0690917C068D7F05C080917B069091C6
:103260007C068B7F90937C0680937B06802F0E9448
:1032700005250E948A251EC18C2F837009F045C048
:10328000D11114C1402F429546954770440F440F09
:10329000602F6F70862F90E0A0E0B0E0042E04C095
:1032A000880F991FAA1FBB1F0A94D2F704FF10C0F2
:1032B0000FE010E020E030E004C0000F111F221FDB
:1032C000331F4A95D2F7009510952095309503C08D
:1032D00000E010E09801C695C695C370BC01CD0111
:1032E000602B712B822B932BC23049F058F4C130E4
:1032F00019F00E94E71EDAC00E94D51ED7C00E94B6
:10330000F91ED4C00E94D31ED1C0DD2319F08C2F2A
:10331000817001C08695882309F4C8C0402F42956A
:1033200046954770440F440F602F6F70862F90E0D2
:10333000A0E0B0E0042E04C0880F991FAA1FBB1F95
:103340000A94D2F704FF10C00FE010E020E030E054
:1033500004C0000F111F221F331F4A95D2F700959A
:1033600010952095309503C000E010E09801C695B7
:10337000C695C370BC01CD01602B712B822B932BA2
:10338000C23049F058F4C13019F00E94AC1F8EC011
:103390000E949A1F8BC00E94BE1F88C00E940D1FF2
:1033A00085C0CF70DD2339F08C2F0E94331F802F12
:1033B0000E941D187BC0802F0E9424188C2F0E9411
:1033C000541F74C0023F01F128F4003F41F0013F57
:1033D000A1F03FC0033FF9F0043F39F13AC0DD23CB
:1033E00041F0153008F05EC08C2F8F710E94791F5C
:1033F00059C0163008F056C0F7CFDD2339F08C2FB6
:103400008F710E94331F4EC0DD23C9F38C2F8F7143
:103410000E94541F47C0DD2329F08C2F8F710E941A
:103420001E1F40C00E94191F3DC0DD2349F0CF710F
:103430008C2F0E94331F63E08C2F0E942C2132C0FE
:1034400081E00E944121123068F182E00E94412116
:1034500029C0DD2331F0112391F2802F0E948017C3
:1034600021C0112399F2093349F49FEFE7EEF3E00D
:103470009150E040F040E1F700C00000802F0E9432
:10348000D61710C04C2F4F70602FC7010E94430405
:103490000E94441E0FC04C2F4F70602FC7010E9426
:1034A000460408C088EF8C0D843020F40E941C165E
:1034B0000E94E203DD20C9F00E949E2080FD15C01D
:1034C000F70112820E9498200E94331FC7010E94B8
:1034D0007E1A0E949820DF91CF911F910F91FF904B
:1034E000EF90DF90CF900C94541FDF91CF911F91FC
:1034F0000F91FF90EF90DF90CF9008950F931F935F
:10350000CF93DF93EC01988189812B813C81232B20
:1035100031F08F3F31F481E09F3F19F403C081E027
:1035200001C080E080FD13C0CE010E94FB03882310
:1035300071F0688179818A810E9475208C010E94D6
:10354000D01F0E94C11EB801CE010E942B18DF912E
:10355000CF911F910F9108950E94C9200E94D920F8
:103560000E94F7200E94B4260E948A2580E090E005
:103570000E94501680E090E00C94661680911A022A
:1035800090911B020E94B3220C94AC1A0E94B920A5
:103590000C94BE1AE92FE295EF704E2F50E0FA011D
:1035A0003297EE30F105B0F4E357FF4F0C94042E40
:1035B000803F91F018F4883E68F40EC0843F51F4C7
:1035C0000BC0883E48F0813F29F406C093FB882752
:1035D00080F9089580E0089581E008950E946A20AE
:1035E0000E94CA1A0895CF93DF9300D000D01F9293
:1035F000CDB7DEB70F900F900F900F900F90DF9127
:10360000CF910895CF93DF9300D000D000D0CDB7F5
:10361000DEB726960FB6F894DEBF0FBECDBFDF91A2
:10362000CF9108951F93CF93DF93C091330416E099
:1036300080913404C81799F0D0E01C9FF0011D9FC1
:10364000F00D1124EB5CFB4F40815181628173814D
:10365000848195810E94021B2196C770E9CFDF917A
:10366000CF911F9108954091650450916604609137
:103670006704709168048091690490916A040C94C5
:10368000021BCF9380916A0482958F7009F05FC00E
:1036900080916704882309F45AC080913304B09163
:1036A000340470916504A0916604409168045091BF
:1036B000690491E07F3F09F090E0692FC6E08B1725
:1036C00009F445C04115510521F0AF3F21F020E03C
:1036D00003C021E001C0262F90E020FD35C0C89F27
:1036E000F001C99FF00D1124EB5CFB4F21812A13DF
:1036F0002BC02081271328C02281211125C02381BE
:1037000034812417350710F421503109241B350B5F
:10371000283C3105C8F420916A042F702061209361
:103720006A0426E0289FF001299FF00D1124E65C31
:10373000FB4F80818F708061808385E694E00E94DA
:103740007E1ACF910C94121B01968770B8CFCF913F
:103750000895AF92BF92CF92DF92EF92FF920F93B4
:103760001F93CF93DF93CDB7DEB761970FB6F89471
:10377000DEBF0FBECDBF8C0185E0F801DE011D96D6
:1037800001900D928A95E1F7D8014C9111965C91C8
:1037900011971296EC9030916504609166048091C7
:1037A000680490916904009731F06F3F31F421E093
:1037B0003F3F19F403C021E001C020E0B22FB170F7
:1037C000BB2E20FD60C1F801C380D480A0906704A7
:1037D000AA2009F4EEC020916A04C816D90628F080
:1037E000D601A81BB90BCD0104C0809590958C0D16
:1037F0009D1DFF24F394883C910580F0F12C207FDF
:1038000009F09CC07C2DD98AC88A6E2D89890E94B6
:10381000F31A85E694E00E947E1A2DC1822F807FE4
:1038200009F054C0561314C0431312C0FE2CE1100B
:103830000FC02F70206120936A040E94331B85E61D
:1038400094E00E947E1A80916A04F80185835CC12D
:10385000CD2831F05F3F31F481E04F3F19F403C0D0
:1038600081E001C080E080FD03C081E08E2502C0C0
:1038700080E090E0F82FF170FF2E80FF1CC0809157
:1038800033042091340436E0821709F41AC190E021
:10389000389FF001399FF00D1124EB5CFB4F6181E3
:1038A000561306C06081461303C06281E61203C04E
:1038B00001968770E9CFFE2CEE2009F425C1809196
:1038C0006A04816080936A04F12C1EC1561309C0FA
:1038D000431307C0E11005C080916A04F801858395
:1038E000A4C04D875E878D859E850E94EE1A882331
:1038F00079F1EE2069F120916A04822F82958F7010
:1039000090E0029774F08091650490916604988726
:103910008F831986DB86CA862C87CE0107960E9484
:103920007E1A86E0F801A5E6B4E001900D928A9532
:10393000E1F70E94411B0E94331B0DC0561771F026
:103940004D875E878D859E850E94EE1A81111AC073
:10395000C8010E947E1AFF24F394D6C04313F0CF0F
:10396000E110EECF80916A04F8018583C8010E94BE
:103970007E1A86E0E5E6F4E0DF011D928A95E9F71C
:10398000FA2CC2C0EE2021F320916A04822F829586
:103990008F7090E002972CF28091650490916604FC
:1039A0009A8389831B82DD82CC822E83CE0101968D
:1039B000B6CFC816D90628F0F601E81BF90BCF01DF
:1039C00004C0809590958C0D9D1D883C910548F014
:1039D000F12C7C2DD98AC88A6E2D89890E94F31A10
:1039E0004AC0FE2CEE2009F4B3CF561333C0431364
:1039F00031C020916A0420FD24C0822F82958F70EF
:103A0000482F50E041155105E1F0D80115962C934F
:103A100015974F30510549F08F5F982F9295907F01
:103A2000822F8F70892B15968C93C8010E947E1A65
:103A300086E0F801A5E6B4E001900D928A95E1F7E1
:103A40003DC086E0F801A5E6B4E001900D928A95AC
:103A5000E1F75AC04D875E878D859E850E94EE1ADC
:103A600081115FCF80916A04816080936A04C801EC
:103A70000E947E1A49C0E5E6F4E086E0DF011D926F
:103A80008A95E9F71BC0EE2009F462CF4D875E8767
:103A90008D859E850E94EE1AF82E882309F458CF52
:103AA00086E0F801A5E6B4E001900D928A95E1F771
:103AB00085E694E00E947A170E94411B0E94331B06
:103AC00023C04D875E878D859E850E946A20292FA1
:103AD00022952F70223028F49F7039F0811105C093
:103AE0000BC0243028F49F7049F4805E883020F0A9
:103AF000C8010E947E1ABF2CFB2C06C0D801159667
:103B00009C91907F91F7F8CF8F2D61960FB6F89426
:103B1000DEBF0FBECDBFDF91CF911F910F91FF9000
:103B2000EF90DF90CF90BF90AF9008951F93CF9309
:103B3000DF93CDB7DEB72C970FB6F894DEBF0FBE7C
:103B4000CDBF4F83588769877A878B879C87CE0143
:103B500007960E94A91B8823D1F09F8188852A851A
:103B60003B85232B31F08F3F31F481E09F3F19F4E7
:103B700003C081E001C080E080FD47C04F815885CF
:103B800069857A858B859C850E94021B3EC086E0F4
:103B9000FE013796DE01119601900D928A95E1F7AC
:103BA000FF81E8856A857B856115710531F0EF3FFE
:103BB00031F481E0FF3F19F403C081E001C080E0EF
:103BC00080FD23C02091340430E0C9010196877044
:103BD00099274091330450E084179507F1F1F98358
:103BE000EA837D836C8396E0929FD001939FB00D12
:103BF0001124AB5CBB4FFE01319601900D929A955A
:103C0000E1F7809334040E94121B16E08091330484
:103C100090913404891771F1189FC00111248B5CB5
:103C20009B4F0E94A91B882329F1E09133041E9F1A
:103C3000F0011124EB5CFB4F408151816281738163
:103C4000848195810E94021B8091330490E001964B
:103C50008770992780933304D9CF0E94C61A109297
:103C6000340410923304E5E6F4E086E0DF011D92AF
:103C70008A95E9F72C960FB6F894DEBF0FBECDBF3C
:103C8000DF91CF911F910895EF92FF920F931F93B1
:103C9000CF93DF938C01892B09F46CC0F12CEE24B7
:103CA000E394E8012196F8018491843740F484304C
:103CB00008F051C0813081F0823019F15BC0853746
:103CC00009F444C0A8F19CE7980F903708F052C05F
:103CD0008F770E94D61741C00E5F1F4FFE0184915F
:103CE00090E2980F983050F48770FE2D01C0FF0FBE
:103CF0008A95EAF78F2F0E94CC2014C00E9480176B
:103D00002DC00E5F1F4FFE01849190E2980F9830F6
:103D100060F48770FE2D01C0FF0F8A95EAF78F2FA0
:103D20000E94D2200E94F72019C00E94D61716C008
:103D30000E5F1F4FFE01C491CC2381F08FE99FE0FD
:103D40000197F1F700C00000C150F6CF0E5F1F4F82
:103D5000FE01F49003C00E9480178E018F2D8823EE
:103D600009F49FCFEFE9FFE03197F1F700C00000C1
:103D70008150F5CFDF91CF911F910F91FF90EF9080
:103D80000895089508950C94C21E0C94C31E0E94B9
:103D9000C51E6093A1047093A2048093A304909322
:103DA000A4040C94AC1A0C94C71E0F931F9300919B
:103DB000A1041091A2042091A3043091A404602BCB
:103DC000712B822B932B1F910F910C94C71E0F9375
:103DD0001F930091A1041091A2042091A30430919B
:103DE000A40460237123822393231F910F910C94C9
:103DF000C71E0F931F930091A1041091A20420915C
:103E0000A3043091A40460277127822793271F9170
:103E10000F910C94C71E0C94C21E0E940B1F60933E
:103E20009D0470939E0480939F049093A0040C942F
:103E3000AC1A60E070E0CB010C940D1F0F931F9340
:103E400041E050E060E070E08A019B0104C0000F97
:103E5000111F221F331F8A95D2F7C901B8011F9184
:103E60000F910C940D1F0F931F9341E050E060E001
:103E700070E004C0440F551F661F771F8A95D2F764
:103E800080919D0490919E04A0919F04B091A00404
:103E90008A019B01082B192B2A2B3B2BC901B80146
:103EA0001F910F910C940D1F0F931F9341E050E051
:103EB00060E070E004C0440F551F661F771F8A95AD
:103EC000D2F7409550956095709580919D049091A2
:103ED0009E04A0919F04B091A0048A019B01082335
:103EE00019232A233B23C901B8011F910F910C9478
:103EF0000D1F0F931F9341E050E060E070E004C09D
:103F0000440F551F661F771F8A95D2F780919D0435
:103F100090919E04A0919F04B091A0048A019B01FE
:103F2000082719272A273B27C901B8011F910F919C
:103F30000C940D1F0F931F9300919D0410919E04EC
:103F400020919F043091A004602B712B822B932B26
:103F50001F910F910C940D1F0F931F9300919D04BF
:103F600010919E0420919F043091A004602371233E
:103F7000822393231F910F910C940D1F0F931F9376
:103F800000919D0410919E0420919F043091A00403
:103F900060277127822793271F910F910C940D1F83
:103FA00008952FE0929F800D1124E82FE695E69565
:103FB000E695877051E001C0550F8A95EAF785E0D4
:103FC000E89FF0011124E559FB4F20E030E070E05C
:103FD0004081CB01022E02C0969587950A94E2F7A4
:103FE0008170819584278523842781932F5F3F4F9C
:103FF0002530310569F708952FE0929F800D112437
:10400000682F669566956695982F977085E0689FEE
:10401000B001112440E050E080E0FB01E40FF51F07
:10402000E559FB4F208130E0092E02C036952795D7
:104030000A94E2F721703327042E01C0220F0A945C
:10404000EAF7822B4F5F5F4F4530510531F70895F6
:10405000BF92CF92DF92EF92FF920F931F93CF9375
:10406000DF938C01C0909D04D0909E04E0909F044B
:10407000F090A0048091A1049091A204A091A304C7
:10408000B091A404C82AD92AEA2AFB2ACFE1D0E0B9
:10409000D701C6010C2E04C0B695A79597958795B4
:1040A0000A94D2F780FD04C0219790F7B12C07C085
:1040B000BC2EB8018C2F0E9462040197A9F38B2DAE
:1040C000DF91CF911F910F91FF90EF90DF90CF90F4
:1040D000BF900895CF93DF93EC010E942820BE018A
:1040E0000E946204DF91CF9108951F93CF93DF93D5
:1040F000EB0190913204992321F0CB010E946A20B8
:1041000013C0882349F0CB010E942820182F682F64
:10411000CE010E94D11F04C0CB010E94FC1F182FAA
:10412000BE01812F0E946204DF91CF911F910895FB
:104130008091A50485958595859508958091A50420
:10414000877008959091A504977081E009F480E04C
:1041500008958091C90408959091C904892B809392
:10416000C904089580959091C90489238093C90456
:1041700008951092C90408959091C804892B8093E2
:10418000C804089580959091C80489238093C80439
:1041900008951092C80408959091C704892B8093C4
:1041A000C704089580959091C70489238093C7041C
:1041B00008951092C70408958091A6040895089563
:1041C0000C94DF200C94E0209091A604981721F025
:1041D0008093A6040C94E22008958091A60488237D
:1041E00029F01092A60480E00C94E2200895E0915A
:1041F0001A02F0911B028091C9048083E0911A0297
:10420000F0911B0290818091C804892B8083E091FA
:104210001A02F0911B0290818091C704892B808340
:104220008091A604882381F0E0911A02F0911B028C
:104230009081892B808380911A0290911B020E94A9
:10424000072281110E94ED2080911A0290911B0299
:104250000C9428160C94DF2098E0899F900111247B
:10426000262B2093A5040E94331F8091A5048595D9
:10427000859585950C942A211092A50480E00C94D4
:104280002A212091A504809582238093A504982F4C
:10429000977079F430E0482F082E000C550B241746
:1042A000350739F08595859585950E94541F0C94A6
:1042B0003C2108956FEF7FEF80E090E00C94812E19
:1042C00080E090E00E944D2E21E08C3E9E4F09F050
:1042D00020E0822F089582E090E00C94452E83E048
:1042E00090E00C94452ECF9384E090E00E94452E00
:1042F000C82F81E290E00E94452E2C2F30E0A901CA
:10430000582BCA01CF910895CF93C92F682F84E00D
:1043100090E00E94632E6C2F81E290E0CF910C948C
:10432000632EAB01BC018FE090E00C94752EAB01C5
:10433000BC0183E190E00C94752E60E070E0CB014D
:104340000C94972160E070E0CB010E9491210C94C5
:104350009D216CEE7EEF80E090E00E94812E60E077
:1043600082E090E00E94632E60E083E090E00E9493
:10437000632E1092A1041092A2041092A304109232
:10438000A40460E084E090E00E94632E60E081E29B
:1043900090E00E94632E60E085E090E00E94632E32
:1043A00060E086E090E00E94632E6FEF87E090E08F
:1043B0000E94632E40E050E0BA0188E090E00E9445
:1043C000752E60E08DE090E00E94632E40E050E0AA
:1043D000BA0188E190E00E94752E60E087E190E0EC
:1043E0000E94632E40E050E0BA018CE190E00E9410
:1043F000752E60E080E290E00E94632E0C94A22172
:104400000C94A921682F8EE090E00C94632EFC019F
:10441000329680912E02882331F08091810687FFA9
:1044200002C09EE101C096E080E0915028F0219109
:104430002223D9F38F5FF9CF0895662351F120919C
:104440002E022223E9F02091810627FF19C0462F72
:104450004695469546954E31E0F4677021E030E090
:1044600002C0220F331F6A95E2F7FC01E40FF11D31
:10447000828190E02823392381E0232B69F409C04D
:10448000FC01329608962191621729F0E817F90786
:10449000D1F780E0089581E008959C01FC013296F7
:1044A0009FEF80E04191461789F09F3F19F4411139
:1044B00001C0982F8F5F8630A9F79F3F39F0F9012F
:1044C000E90FF11D97FDFA956283089508959C0107
:1044D0002A5F3F4FFC014281461301C012820196C0
:1044E00082179307B9F70895262F269526952695C6
:1044F0002E3168F4FC01E20FF11D677021E030E01D
:1045000001C0220F6A95EAF78281282B2283089541
:10451000262F2695269526952E3170F4FC01E20F64
:10452000F11D677021E030E001C0220F6A95EAF7C3
:104530002095828128232283089520912E02222310
:1045400029F02091810627FD0C9474220C944D22B1
:1045500020912E02222329F02091810627FD0C9420
:1045600088220C94672220912E02FC01329622238D
:1045700031F08091810687FF02C08EE101C086E0A4
:10458000DF011D928A95E9F7089508950C94C522DC
:104590000C94C522CF930E94C8220E94B6060E94A6
:1045A000C622C0E08C2F0E945106892B29F4CF5FD0
:1045B000C530C1F780E001C081E0CF9108950C942F
:1045C000C5220E94640380918706843049F11092CD
:1045D000CB0420E488E190E00FB6F894A89580938E
:1045E00060000FBE2093600080E00E94E2030E9402
:1045F000640383B7817F846083BF83B7816083BF97
:104600007894889583B78E7F83BF0FB6F894A8956A
:1046100080916000886180936000109260000FBEFE
:1046200008950E94C61A0E941C160E94E2030C9470
:1046300069031F920F920FB60F9211248F939F93CD
:10464000AF93BF938091CB04811113C080917D06FD
:1046500090917E06A0917F06B09180064196A11DA3
:10466000B11D80937D0690937E06A0937F06B09344
:104670008006BF91AF919F918F910F900FBE0F90C9
:104680001F90189582E084BD93E095BD9AEF97BD89
:1046900080936E0008952FB7F89480917D069091D5
:1046A0007E06A0917F06B09180062FBF08952FB798
:1046B000F89460917D0670917E0680917F069091BE
:1046C00080062FBF0895CF92DF92EF92FF920F9353
:1046D0001F932FB7F89440917D0650917E0660910C
:1046E0007F06709180062FBF6A017B01EE24FF24B4
:1046F0008C0120E030E0C016D106E206F30610F48B
:10470000415051099A01281B390BC9011F910F9182
:10471000FF90EF90DF90CF900895CF92DF92EF92CD
:10472000FF920F931F932FB7F894C0907D06D090FF
:104730007E06E0907F06F09080062FBF97018601ED
:10474000061B170B280B390BC616D706E806F90609
:1047500018F0C901B80106C0C901B801615071095A
:10476000810991091F910F91FF90EF90DF90CF90F9
:10477000089578941F920F920FB60F9211248F9381
:104780009F93AF93BF9380917D0690917E06A091F9
:104790007F06B09180060196A11DB11D80937D0614
:1047A00090937E06A0937F06B0938006BF91AF9151
:1047B0009F918F910F900FBE0F901F90189581E0E1
:1047C0008093E00080E28093D8001092C9008FE1CE
:1047D0009EE40197F1F700C0000087E090EBDC0158
:1047E0008093900690939106A0939206B0939306BF
:1047F0009CE088E10FB6F894A895809360000FBE06
:1048000090936000FFCF0E946021811102C00E943E
:1048100000220E946B218093CA040E94732190930E
:104820008206809381060E946F21682F70E080E0ED
:1048300090E00C94D31E8091D30480FF0BC0609154
:10484000210285E0689FB0011124759567957595E3
:1048500067952BC081FF09C06091210285E0689FA8
:10486000B00111247595679520C082FF07C0609143
:10487000210285E0689FB001112417C09091D204F5
:104880009923D1F060912002961788F72091210298
:1048900085E0289F90011124929FA001939F500DC5
:1048A000112470E0CA010E94D12D6038710540F4D6
:1048B0006115710519F406C065E070E0862F089552
:1048C0008FE7089581E008958091D30480FF08C0A8
:1048D00060911D0270E0759567957595679521C08B
:1048E00081FF06C060911D0270E07595679519C043
:1048F00082FF04C060911D0270E010C09091D2044C
:10490000992399F060911C029617A0F780911D02DF
:10491000899FC001112470E00E94D12D603871057B
:1049200040F46115710519F406C061E070E0862F4E
:1049300008958FE7089581E00895803F21F40E9453
:104940001B24819504C0813F29F40E941B2480937D
:10495000D7040895823F21F40E941B24819504C04E
:10496000833F29F40E941B248093D6040895893F35
:1049700019F40E94642405C08A3F31F40E94642423
:1049800081958093D80408958B3F21F40E9464247C
:10499000819504C08C3F29F40E9464248093D9043B
:1049A0000895843F21F48091D504816017C0853F2C
:1049B00021F48091D504826011C0863F21F480915A
:1049C000D50484600BC0873F21F48091D5048860B2
:1049D00005C0883F31F48091D50480618093D5046F
:1049E00008958D3F21F48091D30481600BC08E3FE8
:1049F00021F48091D304826005C08F3F29F4809117
:104A0000D30484608093D3040895803F39F4809167
:104A1000D70487FF6CC01092D70469C0813F29F486
:104A20008091D7041816BCF362C09091D604823FDF
:104A300029F497FF5CC01092D60459C0833F19F443
:104A40001916CCF354C0893F41F48091D80418164C
:104A50000CF04DC01092D8044AC08A3F29F48091CE
:104A6000D80487FF44C0F6CF8B3F39F48091D90436
:104A700087FF3DC01092D9043AC08C3F29F4809141
:104A8000D9041816BCF333C0843F21F48091D504B7
:104A90008E7F17C0853F21F48091D5048D7F11C092
:104AA000863F21F48091D5048B7F0BC0873F21F492
:104AB0008091D504877F05C0883F31F48091D5046B
:104AC0008F7E8093D50413C08D3F21F48091D30451
:104AD0008E7F0BC08E3F21F48091D3048D7F05C063
:104AE0008F3F29F48091D3048B7F8093D3048091EE
:104AF000D60481110EC08091D70481110AC0809123
:104B0000D804811106C08091D904811102C010928D
:104B1000D204089584ED94E00E9442160E944B2333
:104B20009093D1048093D0040895CF93DF9300D065
:104B300000D000D0CDB7DEB786E0E4EDF4E0DE01D2
:104B4000119601900D928A95E1F78091D60481111A
:104B500005C08091D704882309F47AC08091CE04DF
:104B60009091CF040E946323AC019091D2049923C9
:104B700039F02091220230E02417350758F068C040
:104B8000209123028AE0289F9001112424173507E1
:104B900018F05EC09F3F19F09F5F9093D20410926F
:104BA000D8041092D9048091D604181624F40E94D7
:104BB0001B248093D6048091D60487FF05C00E94F1
:104BC0001B2481958093D6048091D704181624F471
:104BD0000E941B248093D7048091D70487FF05C0CF
:104BE0000E941B2481958093D7043091D6043323EF
:104BF000E1F02091D7042223C1F045EB3403C0013A
:104C00001124992319F09093D60403C081E0809376
:104C1000D60435EB2303C0011124992319F0909396
:104C2000D70403C081E08093D7040E948A25809135
:104C3000D0049091D1049093CF048093CE0486E069
:104C4000FE013196A4EDB4E001900D928A95E1F752
:104C50008091D804811105C08091D904882309F47A
:104C60007AC08091CC049091CD040E946323AC0162
:104C70009091D204992339F020911E0230E024173C
:104C8000350758F068C020911F028AE0289F9001E4
:104C900011242417350718F05EC09F3F19F09F5F5D
:104CA0009093D2041092D6041092D7048091D80425
:104CB000181624F40E9464248093D8048091D804A8
:104CC00087FF05C00E94642481958093D804809159
:104CD000D904181624F40E9464248093D904809186
:104CE000D90487FF05C00E94642481958093D9046C
:104CF0003091D8043323E1F02091D9042223C1F06C
:104D000045EB3403C0011124992319F09093D80482
:104D100003C081E08093D80435EB2303C001112444
:104D2000992319F09093D90403C081E08093D904AA
:104D30000E948A258091D0049091D1049093CD0453
:104D40008093CC0486E0FE013196A4EDB4E001909E
:104D50000D928A95E1F726960FB6F894DEBF0FBE46
:104D6000CDBFDF91CF910895E4EDF4E086E0DF015F
:104D70001D928A95E9F71092D2041092D3040895F7
:104D80008091FA040895CF93DF9300D01F92CDB79E
:104D9000DEB790918706943019F589837B836A8307
:104DA00082E08093E9008FEF9091E800815095FDBB
:104DB00006C095ED9A95F1F700008111F5CF80912D
:104DC000E80085FF0DC040E050E063E070E0CE01F8
:104DD00001960E941F298091E8008E778093E80059
:104DE0000F900F900F90DF91CF910895CF93DF93A5
:104DF000EC010E940229823011F0843031F4BE01AE
:104E000084E0DF91CF910C94C326DF91CF91089578
:104E1000BC0183E00C94C326CF93DF93EC010E9486
:104E20000229823011F08430F9F482E08093E900A5
:104E30008FEF9091E800815095FD06C095ED9A9511
:104E4000F1F700008111F5CF8091E80085FF0CC0DB
:104E500040E050E066E070E0CE010E941F298091A2
:104E6000E8008E778093E800DF91CF910895CF938B
:104E7000DF93EC010E940229823011F08430D9F5D1
:104E800080912E02882339F08091810687FF03C02C
:104E900060E282E002C068E081E08093E9008FEF89
:104EA0009091E800815095FD06C095ED9A95F1F737
:104EB00000008111F5CF8091E80085FF1CC0809132
:104EC0002E02811105C040E050E068E070E003C0B0
:104ED00070E040E050E0CE010E941F298091E80080
:104EE0008E778093E80080E2FE01AAEDB4E00190A5
:104EF0000D928A95E1F7DF91CF9108958091860612
:104F0000811109C00E94B02A0E940D2B8091E200FD
:104F100084608093E20008951092860608950895B3
:104F200008950C94112342E061EC81E00E94292A4B
:104F300042E261EC82E00C94292A80918906833058
:104F400009F460C030F4813071F0823009F499C006
:104F500008958A3009F485C08B3009F46BC089301C
:104F600009F0A7C020C080918806813A09F0A1C04D
:104F70008091E800877F8093E80080918C06909173
:104F80008D06892B21F460E28AED94E003C060E095
:104F900080E090E070E00E946A298091E8008B77C1
:104FA0008093E800089580918806813209F081C0DD
:104FB00080918C0690918D06029708F07AC08091BE
:104FC000E800877F8093E8008091E80082FD05C0BB
:104FD000809187068111F8CF6CC02091F3008091F9
:104FE000F20090E0922B029729F48091F1008B7FE0
:104FF000813021F48091F1008093FA048091E800DF
:105000008B7753C080918806813A09F052C0809115
:105010008C0690918D06892B09F04BC08091E80099
:10502000877F8093E8008091E80080FFFCCF80912B
:105030002E0236C0809188068132D9F580918C0687
:1050400090918D06892BA9F58091E800877F809348
:10505000E8000E945E2A80918A0680932E020C94BA
:10506000C61A80918806813221F58091E800877FF9
:105070008093E8000E945E2A80918B068093FB0457
:10508000089580918806813AA1F48091E800877F95
:105090008093E8008091E80080FFFCCF8091FB04C2
:1050A0008093F1008091E8008E778093E8000C9463
:1050B0005E2A089584B7877F84BF0FB6F894A895B9
:1050C00080916000886180936000109260000FBE44
:1050D00090E080E80FB6F8948093610090936100AF
:1050E0000FBE0E948C160E94B02A0E940D2B809148
:1050F000E20084608093E20078940E94A22D0E94D6
:10510000941684E292E00E941716809187068530FB
:1051100069F40E94E122809185068823B1F30E9400
:10512000CA22882391F30E940929EFCF0E949C167E
:10513000ECCF0C949B28292F332723303105C9F05D
:1051400060F42130310581F02230310509F04AC088
:105150008BE390E020EE34E049C02132310511F1BB
:105160002232310579F13EC082E190E02BE135E059
:105170003DC099278130910561F040F08230910562
:1051800059F0039779F5E2EAF4E008C0ECEDF4E0B9
:1051900005C0EAECF4E002C0E8EAF4E0849190E0B3
:1051A0009F0124C06115710541F061307105D1F492
:1051B00089E090E02BE035E019C089E090E022EF33
:1051C00034E014C06115710541F06130710551F48E
:1051D0008CEB90E02DE235E009C080E490E029EE10
:1051E00035E004C080E090E020E030E0FA01318357
:1051F0002083089580918706843011F081E008951E
:1052000082E008958091FC04811102C00C94FA2878
:10521000089580E189BD82E189BD09B400FEFDCF1A
:105220008091D8008F7D8093D8008091E0008260CB
:105230008093E0008091E00081FDFCCF0895CF9243
:10524000DF92EF92FF920F931F93CF93DF93EC01C6
:105250008B017A010E947D2A811133C0E114F1048F
:1052600039F0F70180819181081B190BC80FD91FF4
:10527000C12CD12C0115110519F18091E80085FD93
:1052800016C08091E8008E778093E800E114F10465
:1052900049F0F70180819181C80ED91ED182C08268
:1052A00085E00FC00E947D2A882321F30AC08991DE
:1052B0008093F10001501109FFEFCF1ADF0ADACF16
:1052C00080E0DF91CF911F910F91FF90EF90DF90E1
:1052D000CF90089520918E0630918F0626173707BC
:1052E00048F06115710539F42091E8002E7720937C
:1052F000E80001C0B901FC0120E06115710579F1F8
:10530000809187068823F1F18530F1F18091E800E2
:1053100083FD3CC08091E80082FD2EC08091E800B2
:1053200080FFEBCF2091F3008091F20090E0922B70
:105330006115710551F08830910538F42191209361
:10534000F100615071090196F3CF21E0089709F04F
:1053500020E08091E8008E778093E800CECF211185
:10536000CFCF0AC080918706882361F0853061F035
:105370008091E80083FD0AC08091E80082FFF2CFAF
:1053800080E0089582E0089583E0089581E0089523
:1053900020918E0630918F062617370748F0611549
:1053A000710539F42091E8002E772093E80001C0C0
:1053B000B901FC0120E06115710591F1809187062A
:1053C000882309F440C0853009F43FC08091E8008B
:1053D00083FD3DC08091E80082FD2FC08091E800F0
:1053E00080FFE9CF2091F3008091F20090E0922BB2
:1053F0006115710559F08830910540F4249120938E
:10540000F1003196615071090196F2CF21E00897C1
:1054100009F020E08091E8008E778093E800CBCF00
:105420002111CCCF0AC080918706882361F0853096
:1054300061F08091E80083FD0AC08091E80082FF5E
:10544000F2CF80E0089582E0089583E0089581E03E
:105450000895982F973068F59093E900981739F0E0
:105460007091EC002091ED005091F00003C0242FCA
:10547000762F50E021FD02C09F5FECCF3091EB0012
:105480003E7F3093EB003091ED003D7F3093ED0097
:105490003091EB0031603093EB007093EC0020937F
:1054A000ED005093F0002091EE0027FDE5CF80E065
:1054B00008958F708093E90081E0089580918806B7
:1054C00087FF11C08091E80082FD05C080918706AA
:1054D0008111F8CF11C08091E8008B770BC08091CB
:1054E0008706882349F08091E80080FFF8CF8091FB
:1054F000E8008E778093E80008952091E4003091D1
:10550000E50095E64091EC00842F817040FF23C0B8
:105510008091E80080FD1DC080918706882399F066
:10552000853099F08091EB0085FD11C04091E40039
:105530005091E5002417350729F3915011F09A0195
:10554000E1CF84E0089582E0089583E0089581E04A
:10555000089580E008954091E80042FFDDCF08956E
:105560000E941E2B0E94262BE0EEF0E080818160DD
:105570008083E8EDF0E080818F77808319BCA7ED10
:10558000B0E08C918E7F8C9380818F7E808310928F
:10559000860608950F931F93CF93DF930E941E2BCF
:1055A0000E94262BC8EDD0E088818F778883888180
:1055B0008068888388818F7D888319BC10928706D4
:1055C00010928306109285061092840600EE10E079
:1055D000F80180818B7F808388818160888342E0AD
:1055E00060E080E00E94292AE1EEF0E080818E7F79
:1055F0008083E2EEF0E0808181608083808188603A
:105600008083F80180818E7F808388818061888398
:10561000DF91CF911F910F910895E8EDF0E0808127
:105620008F7E8083E7EDF0E080818160808384E07D
:1056300082BF81E0809386060C94CA2AE8EDF0E0F0
:1056400080818E7F80831092E20008951092DA00AC
:105650001092E10008951F920F920FB60F9211243D
:105660002F933F934F935F936F937F938F939F936A
:10567000AF93BF93EF93FF938091E10082FF0BC044
:105680008091E20082FF07C08091E1008B7F8093D0
:10569000E1000E94A12D8091DA0080FF1FC080915F
:1056A000D80080FF1BC08091DA008E7F8093DA00E3
:1056B0008091D90080FF0DC080E189BD82E189BD64
:1056C00009B400FEFDCF81E0809387060E947E270B
:1056D00005C019BC109287060E948C278091E100BA
:1056E00080FF19C08091E20080FF15C08091E20028
:1056F0008E7F8093E2008091E20080618093E200DF
:105700008091D80080628093D80019BC85E0809396
:1057100087060E9490278091E10084FF30C080912D
:10572000E20084FF2CC080E189BD82E189BD09B41B
:1057300000FEFDCF8091D8008F7D8093D8008091AE
:10574000E1008F7E8093E1008091E2008F7E809364
:10575000E2008091E20081608093E2008091830604
:10576000882311F084E007C08091E30087FD02C028
:1057700081E001C083E0809387060E949127809199
:10578000E10083FF29C08091E20083FF25C0809162
:10579000E100877F8093E10082E08093870610928A
:1057A00083068091E1008E7F8093E1008091E2008A
:1057B0008E7F8093E2008091E20080618093E2001E
:1057C00042E060E080E00E94292A8091F000886039
:1057D0008093F0000E948F27FF91EF91BF91AF91CE
:1057E0009F918F917F916F915F914F913F912F91F9
:1057F0000F900FBE0F901F9018951F920F920FB62B
:105800000F9211242F933F934F935F936F937F9346
:105810008F939F93AF93BF93CF93DF93EF93FF93B8
:10582000C091E900CF708091EC00D82FD17080FD3D
:10583000D0E81092E9008091F000877F8093F0001B
:1058400078940E94412C1092E9008091F0008860C9
:105850008093F000CD2BCF70C093E900FF91EF91C2
:10586000DF91CF91BF91AF919F918F917F916F9178
:105870005F914F913F912F910F900FBE0F901F900E
:1058800018951F93CF93DF93CDB7DEB7AA970FB6C6
:10589000F894DEBF0FBECDBFE8E8F6E08091F100DE
:1058A000819326E0E039F207C9F70E949D27809195
:1058B000E80083FF2EC18091880690918906492FC8
:1058C00050E04A30510508F024C1FA01E556FF4F77
:1058D0000C94042E803821F0823809F01AC108C0D7
:1058E0008091840690918506992389F082600FC08B
:1058F00080918C068F70873008F00BC18093E9008F
:105900008091EB0085FB882780F91092E900909147
:10591000E800977F9093E8008093F1001092F100E7
:10592000D1C0282F2D7F09F0F4C0882319F08230D0
:1059300061F0EFC080918A06813009F0EAC09330AF
:1059400009F080E0809385062EC080918A0681113F
:105950002AC080918C068F702FEF280F263008F018
:10596000D8C08093E9002091EB0020FF1CC0933049
:1059700021F48091EB00806214C09091EB00906163
:105980009093EB0021E030E0A90102C0440F551FC5
:105990008A95E2F74093EA001092EA008091EB00CA
:1059A00088608093EB001092E9008091E800877F87
:1059B0008093E8000E945E2AACC08111AAC01091B9
:1059C0008A061F778091E3008078812B8093E30023
:1059D0008091E800877F8093E8000E945E2A809192
:1059E000E80080FFFCCF8091E30080688093E300B3
:1059F000111102C082E001C083E08093870689C054
:105A00008058823008F085C080918A0690918B067C
:105A10008C3D53E0950779F583E08A838AE2898398
:105A20004FB7F894DE01139620E03EE051E2E32FF9
:105A3000F0E050935700E49120FF03C0E295EF702F
:105A40003F5FEF708E2F90E0EA3010F0C79601C0F4
:105A5000C0968D939D932F5F243149F74FBF80915E
:105A6000E800877F8093E8006AE270E0CE0101964B
:105A70000E946A2916C060918C0670918D06AE0155
:105A80004F5F5F4F0E949928BC01892B09F441C0E8
:105A90009091E800977F9093E80089819A810E9415
:105AA000C8298091E8008B778093E80032C0803865
:105AB00081F58091E800877F8093E80080918306DC
:105AC0008093F1008091E8008E7772CF811121C020
:105AD00080918A0690918B0699270297D4F4809141
